{
  "contractName": "Recur",
  "abi": [
    {
      "anonymous": false,
      "inputs": [
        {
          "indexed": false,
          "internalType": "address",
          "name": "from",
          "type": "address"
        },
        {
          "indexed": false,
          "internalType": "uint256",
          "name": "paymentId",
          "type": "uint256"
        }
      ],
      "name": "ActivatePayment",
      "type": "event"
    },
    {
      "anonymous": false,
      "inputs": [
        {
          "indexed": false,
          "internalType": "address",
          "name": "from",
          "type": "address"
        },
        {
          "indexed": false,
          "internalType": "address",
          "name": "to",
          "type": "address"
        },
        {
          "indexed": false,
          "internalType": "string",
          "name": "label",
          "type": "string"
        },
        {
          "indexed": false,
          "internalType": "uint256",
          "name": "amount",
          "type": "uint256"
        },
        {
          "indexed": false,
          "internalType": "uint256",
          "name": "interval",
          "type": "uint256"
        }
      ],
      "name": "CreatePayment",
      "type": "event"
    },
    {
      "anonymous": false,
      "inputs": [
        {
          "indexed": false,
          "internalType": "address",
          "name": "from",
          "type": "address"
        },
        {
          "indexed": false,
          "internalType": "uint256",
          "name": "paymentId",
          "type": "uint256"
        }
      ],
      "name": "DeactivatePayment",
      "type": "event"
    },
    {
      "anonymous": false,
      "inputs": [
        {
          "indexed": false,
          "internalType": "address",
          "name": "from",
          "type": "address"
        },
        {
          "indexed": false,
          "internalType": "uint256",
          "name": "paymentId",
          "type": "uint256"
        }
      ],
      "name": "DeletePayment",
      "type": "event"
    },
    {
      "anonymous": false,
      "inputs": [
        {
          "indexed": false,
          "internalType": "uint256",
          "name": "paymentId",
          "type": "uint256"
        }
      ],
      "name": "DepletedFunds",
      "type": "event"
    },
    {
      "anonymous": false,
      "inputs": [
        {
          "indexed": false,
          "internalType": "address",
          "name": "who",
          "type": "address"
        },
        {
          "indexed": false,
          "internalType": "uint256",
          "name": "amount",
          "type": "uint256"
        },
        {
          "indexed": false,
          "internalType": "uint256",
          "name": "paymentId",
          "type": "uint256"
        }
      ],
      "name": "Fund",
      "type": "event"
    },
    {
      "anonymous": false,
      "inputs": [
        {
          "indexed": false,
          "internalType": "address",
          "name": "from",
          "type": "address"
        },
        {
          "indexed": false,
          "internalType": "address",
          "name": "to",
          "type": "address"
        },
        {
          "indexed": false,
          "internalType": "uint256",
          "name": "amount",
          "type": "uint256"
        }
      ],
      "name": "SendPayment",
      "type": "event"
    },
    {
      "anonymous": false,
      "inputs": [
        {
          "indexed": false,
          "internalType": "address",
          "name": "to",
          "type": "address"
        },
        {
          "indexed": false,
          "internalType": "uint256",
          "name": "amount",
          "type": "uint256"
        }
      ],
      "name": "Transfer",
      "type": "event"
    },
    {
      "anonymous": false,
      "inputs": [
        {
          "indexed": false,
          "internalType": "address",
          "name": "who",
          "type": "address"
        },
        {
          "indexed": false,
          "internalType": "uint256",
          "name": "amount",
          "type": "uint256"
        },
        {
          "indexed": false,
          "internalType": "uint256",
          "name": "paymentId",
          "type": "uint256"
        }
      ],
      "name": "Withdraw",
      "type": "event"
    },
    {
      "inputs": [
        {
          "internalType": "uint256",
          "name": "",
          "type": "uint256"
        }
      ],
      "name": "all_payments",
      "outputs": [
        {
          "internalType": "uint256",
          "name": "id",
          "type": "uint256"
        },
        {
          "internalType": "address",
          "name": "from",
          "type": "address"
        },
        {
          "internalType": "string",
          "name": "label",
          "type": "string"
        },
        {
          "internalType": "address",
          "name": "to",
          "type": "address"
        },
        {
          "internalType": "uint256",
          "name": "amount",
          "type": "uint256"
        },
        {
          "internalType": "uint256",
          "name": "lastPay",
          "type": "uint256"
        },
        {
          "internalType": "uint256",
          "name": "interval",
          "type": "uint256"
        },
        {
          "internalType": "bool",
          "name": "active",
          "type": "bool"
        }
      ],
      "stateMutability": "view",
      "type": "function"
    },
    {
      "inputs": [
        {
          "internalType": "uint256",
          "name": "",
          "type": "uint256"
        }
      ],
      "name": "funds",
      "outputs": [
        {
          "internalType": "uint256",
          "name": "",
          "type": "uint256"
        }
      ],
      "stateMutability": "view",
      "type": "function"
    },
    {
      "inputs": [
        {
          "internalType": "address",
          "name": "",
          "type": "address"
        },
        {
          "internalType": "uint256",
          "name": "",
          "type": "uint256"
        }
      ],
      "name": "incomingPayments",
      "outputs": [
        {
          "internalType": "uint256",
          "name": "id",
          "type": "uint256"
        },
        {
          "internalType": "address",
          "name": "from",
          "type": "address"
        },
        {
          "internalType": "string",
          "name": "label",
          "type": "string"
        },
        {
          "internalType": "address",
          "name": "to",
          "type": "address"
        },
        {
          "internalType": "uint256",
          "name": "amount",
          "type": "uint256"
        },
        {
          "internalType": "uint256",
          "name": "lastPay",
          "type": "uint256"
        },
        {
          "internalType": "uint256",
          "name": "interval",
          "type": "uint256"
        },
        {
          "internalType": "bool",
          "name": "active",
          "type": "bool"
        }
      ],
      "stateMutability": "view",
      "type": "function"
    },
    {
      "inputs": [
        {
          "internalType": "address",
          "name": "",
          "type": "address"
        },
        {
          "internalType": "uint256",
          "name": "",
          "type": "uint256"
        }
      ],
      "name": "outgoingPayments",
      "outputs": [
        {
          "internalType": "uint256",
          "name": "id",
          "type": "uint256"
        },
        {
          "internalType": "address",
          "name": "from",
          "type": "address"
        },
        {
          "internalType": "string",
          "name": "label",
          "type": "string"
        },
        {
          "internalType": "address",
          "name": "to",
          "type": "address"
        },
        {
          "internalType": "uint256",
          "name": "amount",
          "type": "uint256"
        },
        {
          "internalType": "uint256",
          "name": "lastPay",
          "type": "uint256"
        },
        {
          "internalType": "uint256",
          "name": "interval",
          "type": "uint256"
        },
        {
          "internalType": "bool",
          "name": "active",
          "type": "bool"
        }
      ],
      "stateMutability": "view",
      "type": "function"
    },
    {
      "inputs": [
        {
          "internalType": "address",
          "name": "to",
          "type": "address"
        },
        {
          "internalType": "string",
          "name": "label",
          "type": "string"
        },
        {
          "internalType": "uint256",
          "name": "amount",
          "type": "uint256"
        },
        {
          "internalType": "uint256",
          "name": "interval",
          "type": "uint256"
        }
      ],
      "name": "createPayment",
      "outputs": [],
      "stateMutability": "nonpayable",
      "type": "function"
    },
    {
      "inputs": [
        {
          "internalType": "uint256",
          "name": "id",
          "type": "uint256"
        }
      ],
      "name": "deletePayment",
      "outputs": [],
      "stateMutability": "nonpayable",
      "type": "function"
    },
    {
      "inputs": [
        {
          "internalType": "uint256",
          "name": "id",
          "type": "uint256"
        }
      ],
      "name": "deactivatePayment",
      "outputs": [],
      "stateMutability": "nonpayable",
      "type": "function"
    },
    {
      "inputs": [
        {
          "internalType": "uint256",
          "name": "id",
          "type": "uint256"
        }
      ],
      "name": "activatePayment",
      "outputs": [],
      "stateMutability": "nonpayable",
      "type": "function"
    },
    {
      "inputs": [
        {
          "internalType": "address",
          "name": "payer",
          "type": "address"
        }
      ],
      "name": "getNumOutgoingPayments",
      "outputs": [
        {
          "internalType": "uint256",
          "name": "",
          "type": "uint256"
        }
      ],
      "stateMutability": "view",
      "type": "function"
    },
    {
      "inputs": [
        {
          "internalType": "address",
          "name": "payee",
          "type": "address"
        }
      ],
      "name": "getNumIncomingPayments",
      "outputs": [
        {
          "internalType": "uint256",
          "name": "",
          "type": "uint256"
        }
      ],
      "stateMutability": "view",
      "type": "function"
    },
    {
      "inputs": [
        {
          "internalType": "uint256",
          "name": "id",
          "type": "uint256"
        }
      ],
      "name": "getUnclaimedFundsById",
      "outputs": [
        {
          "internalType": "uint256",
          "name": "",
          "type": "uint256"
        },
        {
          "internalType": "uint256",
          "name": "",
          "type": "uint256"
        }
      ],
      "stateMutability": "view",
      "type": "function"
    },
    {
      "inputs": [
        {
          "internalType": "address",
          "name": "payee",
          "type": "address"
        }
      ],
      "name": "getAllUnclaimedFunds",
      "outputs": [
        {
          "internalType": "uint256",
          "name": "",
          "type": "uint256"
        }
      ],
      "stateMutability": "view",
      "type": "function"
    },
    {
      "inputs": [
        {
          "internalType": "uint256",
          "name": "id",
          "type": "uint256"
        },
        {
          "internalType": "address",
          "name": "payee",
          "type": "address"
        }
      ],
      "name": "collectFundsById",
      "outputs": [],
      "stateMutability": "payable",
      "type": "function"
    },
    {
      "inputs": [],
      "name": "collectAllFunds",
      "outputs": [],
      "stateMutability": "nonpayable",
      "type": "function"
    },
    {
      "inputs": [
        {
          "internalType": "uint256",
          "name": "id",
          "type": "uint256"
        }
      ],
      "name": "fund",
      "outputs": [],
      "stateMutability": "payable",
      "type": "function"
    },
    {
      "inputs": [
        {
          "internalType": "uint256",
          "name": "id",
          "type": "uint256"
        },
        {
          "internalType": "uint256",
          "name": "amount",
          "type": "uint256"
        }
      ],
      "name": "withdraw",
      "outputs": [],
      "stateMutability": "payable",
      "type": "function"
    }
  ],
  "bytecode": "0x608060405234801561001057600080fd5b50613bf0806100206000396000f3fe6080604052600436106100f35760003560e01c8063892fd9231161008a578063ce43f36311610059578063ce43f3631461036c578063d37f35fb14610395578063df7ce25f146103b1578063f9e34506146103c8576100f3565b8063892fd923146102a557806393cca1e6146102e3578063b99cc3b114610327578063ca1d209d14610350576100f3565b8063367c11d8116100c6578063367c11d8146101df578063441a3e70146102085780637b8e8895146102245780638638b1d514610261576100f3565b80630f5aa24f146100f85780630fd3d847146101215780632334eb3b146101655780633060647e146101a2575b600080fd5b34801561010457600080fd5b5061011f600480360381019061011a9190613353565b610405565b005b34801561012d57600080fd5b50610148600480360381019061014391906133d6565b61094d565b60405161015c9897969594939291906134d7565b60405180910390f35b34801561017157600080fd5b5061018c6004803603810190610187919061355c565b610a87565b6040516101999190613589565b60405180910390f35b3480156101ae57600080fd5b506101c960048036038101906101c4919061355c565b610ad3565b6040516101d69190613589565b60405180910390f35b3480156101eb57600080fd5b50610206600480360381019061020191906135a4565b610b1f565b005b610222600480360381019061021d91906135d1565b6110db565b005b34801561023057600080fd5b5061024b600480360381019061024691906135a4565b61126c565b6040516102589190613589565b60405180910390f35b34801561026d57600080fd5b50610288600480360381019061028391906135a4565b611284565b60405161029c9897969594939291906134d7565b60405180910390f35b3480156102b157600080fd5b506102cc60048036038101906102c791906135a4565b6113a1565b6040516102da929190613611565b60405180910390f35b3480156102ef57600080fd5b5061030a600480360381019061030591906133d6565b6116ac565b60405161031e9897969594939291906134d7565b60405180910390f35b34801561033357600080fd5b5061034e600480360381019061034991906135a4565b6117e6565b005b61036a600480360381019061036591906135a4565b611e61565b005b34801561037857600080fd5b50610393600480360381019061038e91906135a4565b611fe6565b005b6103af60048036038101906103aa919061363a565b6120f4565b005b3480156103bd57600080fd5b506103c661271f565b005b3480156103d457600080fd5b506103ef60048036038101906103ea919061355c565b61272a565b6040516103fc9190613589565b60405180910390f35b60008211610448576040517f08c379a000000000000000000000000000000000000000000000000000000000815260040161043f906136c6565b60405180910390fd5b8373ffffffffffffffffffffffffffffffffffffffff163373ffffffffffffffffffffffffffffffffffffffff1614156104b7576040517f08c379a00000000000000000000000000000000000000000000000000000000081526004016104ae90613732565b60405180910390fd5b6001600360008282546104ca9190613781565b92505081905550600060405180610100016040528060035481526020013373ffffffffffffffffffffffffffffffffffffffff1681526020018581526020018673ffffffffffffffffffffffffffffffffffffffff1681526020018481526020014281526020018381526020016000151581525090508060008060035481526020019081526020016000206000820151816000015560208201518160010160006101000a81548173ffffffffffffffffffffffffffffffffffffffff021916908373ffffffffffffffffffffffffffffffffffffffff16021790555060408201518160020190805190602001906105c2929190613082565b5060608201518160030160006101000a81548173ffffffffffffffffffffffffffffffffffffffff021916908373ffffffffffffffffffffffffffffffffffffffff1602179055506080820151816004015560a0820151816005015560c0820151816006015560e08201518160070160006101000a81548160ff021916908315150217905550905050600260008673ffffffffffffffffffffffffffffffffffffffff1673ffffffffffffffffffffffffffffffffffffffff1681526020019081526020016000208190806001815401808255809150506001900390600052602060002090600802016000909190919091506000820151816000015560208201518160010160006101000a81548173ffffffffffffffffffffffffffffffffffffffff021916908373ffffffffffffffffffffffffffffffffffffffff1602179055506040820151816002019080519060200190610721929190613082565b5060608201518160030160006101000a81548173ffffffffffffffffffffffffffffffffffffffff021916908373ffffffffffffffffffffffffffffffffffffffff1602179055506080820151816004015560a0820151816005015560c0820151816006015560e08201518160070160006101000a81548160ff0219169083151502179055505050600160003373ffffffffffffffffffffffffffffffffffffffff1673ffffffffffffffffffffffffffffffffffffffff1681526020019081526020016000208190806001815401808255809150506001900390600052602060002090600802016000909190919091506000820151816000015560208201518160010160006101000a81548173ffffffffffffffffffffffffffffffffffffffff021916908373ffffffffffffffffffffffffffffffffffffffff160217905550604082015181600201908051906020019061087f929190613082565b5060608201518160030160006101000a81548173ffffffffffffffffffffffffffffffffffffffff021916908373ffffffffffffffffffffffffffffffffffffffff1602179055506080820151816004015560a0820151816005015560c0820151816006015560e08201518160070160006101000a81548160ff02191690831515021790555050507fa23c44a508fd8c53b93a2f2b49c36d686932651a6ad28aebc2881eb0b2d5d937338686868660405161093e9594939291906137d7565b60405180910390a15050505050565b6001602052816000526040600020818154811061096957600080fd5b9060005260206000209060080201600091509150508060000154908060010160009054906101000a900473ffffffffffffffffffffffffffffffffffffffff16908060020180546109b990613860565b80601f01602080910402602001604051908101604052809291908181526020018280546109e590613860565b8015610a325780601f10610a0757610100808354040283529160200191610a32565b820191906000526020600020905b815481529060010190602001808311610a1557829003601f168201915b5050505050908060030160009054906101000a900473ffffffffffffffffffffffffffffffffffffffff16908060040154908060050154908060060154908060070160009054906101000a900460ff16905088565b6000600260008373ffffffffffffffffffffffffffffffffffffffff1673ffffffffffffffffffffffffffffffffffffffff168152602001908152602001600020805490509050919050565b6000600160008373ffffffffffffffffffffffffffffffffffffffff1673ffffffffffffffffffffffffffffffffffffffff168152602001908152602001600020805490509050919050565b806000806000838152602001908152602001600020600401541415610b79576040517f08c379a0000000000000000000000000000000000000000000000000000000008152600401610b70906138de565b60405180910390fd5b33828173ffffffffffffffffffffffffffffffffffffffff1660008083815260200190815260200160002060010160009054906101000a900473ffffffffffffffffffffffffffffffffffffffff1673ffffffffffffffffffffffffffffffffffffffff1614610c1e576040517f08c379a0000000000000000000000000000000000000000000000000000000008152600401610c159061394a565b60405180910390fd5b6000808581526020019081526020016000206004015460046000868152602001908152602001600020541015610c89576040517f08c379a0000000000000000000000000000000000000000000000000000000008152600401610c80906139b6565b60405180910390fd5b600160008086815260200190815260200160002060070160006101000a81548160ff021916908315150217905550426000808681526020019081526020016000206005018190555060005b6002600080600088815260200190815260200160002060030160009054906101000a900473ffffffffffffffffffffffffffffffffffffffff1673ffffffffffffffffffffffffffffffffffffffff1673ffffffffffffffffffffffffffffffffffffffff16815260200190815260200160002080549050811015610eb657846002600080600089815260200190815260200160002060030160009054906101000a900473ffffffffffffffffffffffffffffffffffffffff1673ffffffffffffffffffffffffffffffffffffffff1673ffffffffffffffffffffffffffffffffffffffff1681526020019081526020016000208281548110610dda57610dd96139d6565b5b9060005260206000209060080201600001541415610ea35760016002600080600089815260200190815260200160002060030160009054906101000a900473ffffffffffffffffffffffffffffffffffffffff1673ffffffffffffffffffffffffffffffffffffffff1673ffffffffffffffffffffffffffffffffffffffff1681526020019081526020016000208281548110610e7a57610e796139d6565b5b906000526020600020906008020160070160006101000a81548160ff0219169083151502179055505b8080610eae90613a05565b915050610cd4565b5060005b6001600080600088815260200190815260200160002060010160009054906101000a900473ffffffffffffffffffffffffffffffffffffffff1673ffffffffffffffffffffffffffffffffffffffff1673ffffffffffffffffffffffffffffffffffffffff1681526020019081526020016000208054905081101561109b57846001600080600089815260200190815260200160002060010160009054906101000a900473ffffffffffffffffffffffffffffffffffffffff1673ffffffffffffffffffffffffffffffffffffffff1673ffffffffffffffffffffffffffffffffffffffff1681526020019081526020016000208281548110610fc057610fbf6139d6565b5b906000526020600020906008020160000154141561108857600180600080600089815260200190815260200160002060010160009054906101000a900473ffffffffffffffffffffffffffffffffffffffff1673ffffffffffffffffffffffffffffffffffffffff1673ffffffffffffffffffffffffffffffffffffffff168152602001908152602001600020828154811061105f5761105e6139d6565b5b906000526020600020906008020160070160006101000a81548160ff0219169083151502179055505b808061109390613a05565b915050610eba565b507f1eb1b9c066c8c29a1d0bd85b5b6d7c5cf15d7a9113d74f0527b8a11892a4de0233856040516110cd929190613a4e565b60405180910390a150505050565b33828173ffffffffffffffffffffffffffffffffffffffff1660008083815260200190815260200160002060010160009054906101000a900473ffffffffffffffffffffffffffffffffffffffff1673ffffffffffffffffffffffffffffffffffffffff1614611180576040517f08c379a00000000000000000000000000000000000000000000000000000000081526004016111779061394a565b60405180910390fd5b826004600086815260200190815260200160002060008282546111a39190613a77565b9250508190555060008085815260200190815260200160002060040154600460008681526020019081526020016000205410156111e4576111e38461289c565b5b3373ffffffffffffffffffffffffffffffffffffffff166108fc849081150290604051600060405180830381858888f1935050505015801561122a573d6000803e3d6000fd5b507ff279e6a1f5e320cca91135676d9cb6e44ca8a08c0b88342bcdb1144f6511b56833848660405161125e93929190613aab565b60405180910390a150505050565b60046020528060005260406000206000915090505481565b60006020528060005260406000206000915090508060000154908060010160009054906101000a900473ffffffffffffffffffffffffffffffffffffffff16908060020180546112d390613860565b80601f01602080910402602001604051908101604052809291908181526020018280546112ff90613860565b801561134c5780601f106113215761010080835404028352916020019161134c565b820191906000526020600020905b81548152906001019060200180831161132f57829003601f168201915b5050505050908060030160009054906101000a900473ffffffffffffffffffffffffffffffffffffffff16908060040154908060050154908060060154908060070160009054906101000a900460ff16905088565b6000808260008060008381526020019081526020016000206004015414156113fe576040517f08c379a00000000000000000000000000000000000000000000000000000000081526004016113f5906138de565b60405180910390fd5b8360008082815260200190815260200160002060070160009054906101000a900460ff16611461576040517f08c379a000000000000000000000000000000000000000000000000000000000815260040161145890613b2e565b60405180910390fd5b60008060046000888152602001908152602001600020549050600080600089815260200190815260200160002060050154905060008060008a815260200190815260200160002060405180610100016040529081600082015481526020016001820160009054906101000a900473ffffffffffffffffffffffffffffffffffffffff1673ffffffffffffffffffffffffffffffffffffffff1673ffffffffffffffffffffffffffffffffffffffff16815260200160028201805461152490613860565b80601f016020809104026020016040519081016040528092919081815260200182805461155090613860565b801561159d5780601f106115725761010080835404028352916020019161159d565b820191906000526020600020905b81548152906001019060200180831161158057829003601f168201915b505050505081526020016003820160009054906101000a900473ffffffffffffffffffffffffffffffffffffffff1673ffffffffffffffffffffffffffffffffffffffff1673ffffffffffffffffffffffffffffffffffffffff1681526020016004820154815260200160058201548152602001600682015481526020016007820160009054906101000a900460ff16151515158152505090505b818160c001516116489190613781565b421015801561165b575080608001518310155b1561169b578060800151846116709190613781565b93508060800151836116829190613a77565b92508060c00151826116949190613781565b9150611638565b838297509750505050505050915091565b600260205281600052604060002081815481106116c857600080fd5b9060005260206000209060080201600091509150508060000154908060010160009054906101000a900473ffffffffffffffffffffffffffffffffffffffff169080600201805461171890613860565b80601f016020809104026020016040519081016040528092919081815260200182805461174490613860565b80156117915780601f1061176657610100808354040283529160200191611791565b820191906000526020600020905b81548152906001019060200180831161177457829003601f168201915b5050505050908060030160009054906101000a900473ffffffffffffffffffffffffffffffffffffffff16908060040154908060050154908060060154908060070160009054906101000a900460ff16905088565b806000806000838152602001908152602001600020600401541415611840576040517f08c379a0000000000000000000000000000000000000000000000000000000008152600401611837906138de565b60405180910390fd5b33828173ffffffffffffffffffffffffffffffffffffffff1660008083815260200190815260200160002060010160009054906101000a900473ffffffffffffffffffffffffffffffffffffffff1673ffffffffffffffffffffffffffffffffffffffff16146118e5576040517f08c379a00000000000000000000000000000000000000000000000000000000081526004016118dc9061394a565b60405180910390fd5b60006004600086815260200190815260200160002054905060046000868152602001908152602001600020600090553373ffffffffffffffffffffffffffffffffffffffff166108fc829081150290604051600060405180830381858888f1935050505015801561195a573d6000803e3d6000fd5b5060005b600160003373ffffffffffffffffffffffffffffffffffffffff1673ffffffffffffffffffffffffffffffffffffffff16815260200190815260200160002080549050811015611b1a5785600160003373ffffffffffffffffffffffffffffffffffffffff1673ffffffffffffffffffffffffffffffffffffffff16815260200190815260200160002082815481106119fa576119f96139d6565b5b9060005260206000209060080201600001541415611b0757600160003373ffffffffffffffffffffffffffffffffffffffff1673ffffffffffffffffffffffffffffffffffffffff1681526020019081526020016000208181548110611a6357611a626139d6565b5b90600052602060002090600802016000808201600090556001820160006101000a81549073ffffffffffffffffffffffffffffffffffffffff0219169055600282016000611ab19190613108565b6003820160006101000a81549073ffffffffffffffffffffffffffffffffffffffff02191690556004820160009055600582016000905560068201600090556007820160006101000a81549060ff021916905550505b8080611b1290613a05565b91505061195e565b5060005b6002600080600089815260200190815260200160002060030160009054906101000a900473ffffffffffffffffffffffffffffffffffffffff1673ffffffffffffffffffffffffffffffffffffffff1673ffffffffffffffffffffffffffffffffffffffff16815260200190815260200160002080549050811015611d795785600260008060008a815260200190815260200160002060030160009054906101000a900473ffffffffffffffffffffffffffffffffffffffff1673ffffffffffffffffffffffffffffffffffffffff1673ffffffffffffffffffffffffffffffffffffffff1681526020019081526020016000208281548110611c2457611c236139d6565b5b9060005260206000209060080201600001541415611d66576002600080600089815260200190815260200160002060030160009054906101000a900473ffffffffffffffffffffffffffffffffffffffff1673ffffffffffffffffffffffffffffffffffffffff1673ffffffffffffffffffffffffffffffffffffffff1681526020019081526020016000208181548110611cc257611cc16139d6565b5b90600052602060002090600802016000808201600090556001820160006101000a81549073ffffffffffffffffffffffffffffffffffffffff0219169055600282016000611d109190613108565b6003820160006101000a81549073ffffffffffffffffffffffffffffffffffffffff02191690556004820160009055600582016000905560068201600090556007820160006101000a81549060ff021916905550505b8080611d7190613a05565b915050611b1e565b506000808681526020019081526020016000206000808201600090556001820160006101000a81549073ffffffffffffffffffffffffffffffffffffffff0219169055600282016000611dcc9190613108565b6003820160006101000a81549073ffffffffffffffffffffffffffffffffffffffff02191690556004820160009055600582016000905560068201600090556007820160006101000a81549060ff021916905550507f237ab35f9c75e8e5ff8917226364c352c1065b53381cf2629e4260818a568b2b3386604051611e52929190613a4e565b60405180910390a15050505050565b33818173ffffffffffffffffffffffffffffffffffffffff1660008083815260200190815260200160002060010160009054906101000a900473ffffffffffffffffffffffffffffffffffffffff1673ffffffffffffffffffffffffffffffffffffffff1614611f06576040517f08c379a0000000000000000000000000000000000000000000000000000000008152600401611efd9061394a565b60405180910390fd5b60008084815260200190815260200160002060040154346004600086815260200190815260200160002054611f3b9190613781565b1015611f7c576040517f08c379a0000000000000000000000000000000000000000000000000000000008152600401611f73906139b6565b60405180910390fd5b34600460008581526020019081526020016000206000828254611f9f9190613781565b925050819055507fd5321498ebef1d048889992d8457d0f50576d300db1fd93488480c1f57a65601333485604051611fd993929190613aab565b60405180910390a1505050565b806000806000838152602001908152602001600020600401541415612040576040517f08c379a0000000000000000000000000000000000000000000000000000000008152600401612037906138de565b60405180910390fd5b33828173ffffffffffffffffffffffffffffffffffffffff1660008083815260200190815260200160002060010160009054906101000a900473ffffffffffffffffffffffffffffffffffffffff1673ffffffffffffffffffffffffffffffffffffffff16146120e5576040517f08c379a00000000000000000000000000000000000000000000000000000000081526004016120dc9061394a565b60405180910390fd5b6120ee8461289c565b50505050565b81600080600083815260200190815260200160002060040154141561214e576040517f08c379a0000000000000000000000000000000000000000000000000000000008152600401612145906138de565b60405180910390fd5b8260008082815260200190815260200160002060070160009054906101000a900460ff166121b1576040517f08c379a00000000000000000000000000000000000000000000000000000000081526004016121a890613b2e565b60405180910390fd5b82848173ffffffffffffffffffffffffffffffffffffffff1660008083815260200190815260200160002060030160009054906101000a900473ffffffffffffffffffffffffffffffffffffffff1673ffffffffffffffffffffffffffffffffffffffff1614612256576040517f08c379a000000000000000000000000000000000000000000000000000000000815260040161224d90613b9a565b60405180910390fd5b600080612262886113a1565b9150915081600460008a815260200190815260200160002060008282546122899190613a77565b92505081905550806000808a81526020019081526020016000206005018190555060005b600260008060008c815260200190815260200160002060030160009054906101000a900473ffffffffffffffffffffffffffffffffffffffff1673ffffffffffffffffffffffffffffffffffffffff1673ffffffffffffffffffffffffffffffffffffffff1681526020019081526020016000208054905081101561247b5788600260008060008d815260200190815260200160002060030160009054906101000a900473ffffffffffffffffffffffffffffffffffffffff1673ffffffffffffffffffffffffffffffffffffffff1673ffffffffffffffffffffffffffffffffffffffff16815260200190815260200160002082815481106123b3576123b26139d6565b5b90600052602060002090600802016000015414156124685781600260008060008d815260200190815260200160002060030160009054906101000a900473ffffffffffffffffffffffffffffffffffffffff1673ffffffffffffffffffffffffffffffffffffffff1673ffffffffffffffffffffffffffffffffffffffff1681526020019081526020016000208281548110612452576124516139d6565b5b9060005260206000209060080201600501819055505b808061247390613a05565b9150506122ad565b5060005b600160008060008c815260200190815260200160002060010160009054906101000a900473ffffffffffffffffffffffffffffffffffffffff1673ffffffffffffffffffffffffffffffffffffffff1673ffffffffffffffffffffffffffffffffffffffff1681526020019081526020016000208054905081101561264d5788600160008060008d815260200190815260200160002060010160009054906101000a900473ffffffffffffffffffffffffffffffffffffffff1673ffffffffffffffffffffffffffffffffffffffff1673ffffffffffffffffffffffffffffffffffffffff1681526020019081526020016000208281548110612585576125846139d6565b5b906000526020600020906008020160000154141561263a5781600160008060008d815260200190815260200160002060010160009054906101000a900473ffffffffffffffffffffffffffffffffffffffff1673ffffffffffffffffffffffffffffffffffffffff1673ffffffffffffffffffffffffffffffffffffffff1681526020019081526020016000208281548110612624576126236139d6565b5b9060005260206000209060080201600501819055505b808061264590613a05565b91505061247f565b5081600560008973ffffffffffffffffffffffffffffffffffffffff1673ffffffffffffffffffffffffffffffffffffffff168152602001908152602001600020600082825461269d9190613781565b9250508190555060008089815260200190815260200160002060040154600460008a8152602001908152602001600020541015612715577f52565e42cf9d33aa76ddd255e65c348ae8760666ced58a80f0246df65953e4c7886040516127039190613589565b60405180910390a16127148861289c565b5b5050505050505050565b61272833612e32565b565b60008060009050600080600090505b600260008673ffffffffffffffffffffffffffffffffffffffff1673ffffffffffffffffffffffffffffffffffffffff168152602001908152602001600020805490508110156128915760011515600260008773ffffffffffffffffffffffffffffffffffffffff1673ffffffffffffffffffffffffffffffffffffffff16815260200190815260200160002082815481106127d8576127d76139d6565b5b906000526020600020906008020160070160009054906101000a900460ff161515141561287e5761286a600260008773ffffffffffffffffffffffffffffffffffffffff1673ffffffffffffffffffffffffffffffffffffffff1681526020019081526020016000208281548110612853576128526139d6565b5b9060005260206000209060080201600001546113a1565b5080925050818361287b9190613781565b92505b808061288990613a05565b915050612739565b508192505050919050565b8060008060008381526020019081526020016000206004015414156128f6576040517f08c379a00000000000000000000000000000000000000000000000000000000081526004016128ed906138de565b60405180910390fd5b600061293660008085815260200190815260200160002060030160009054906101000a900473ffffffffffffffffffffffffffffffffffffffff1661272a565b1180156129b7575060006005600080600086815260200190815260200160002060030160009054906101000a900473ffffffffffffffffffffffffffffffffffffffff1673ffffffffffffffffffffffffffffffffffffffff1673ffffffffffffffffffffffffffffffffffffffff16815260200190815260200160002054145b156129fb576129fa60008084815260200190815260200160002060030160009054906101000a900473ffffffffffffffffffffffffffffffffffffffff16612e32565b5b600080600084815260200190815260200160002060070160006101000a81548160ff02191690831515021790555060005b6002600080600086815260200190815260200160002060030160009054906101000a900473ffffffffffffffffffffffffffffffffffffffff1673ffffffffffffffffffffffffffffffffffffffff1673ffffffffffffffffffffffffffffffffffffffff16815260200190815260200160002080549050811015612c0e57826002600080600087815260200190815260200160002060030160009054906101000a900473ffffffffffffffffffffffffffffffffffffffff1673ffffffffffffffffffffffffffffffffffffffff1673ffffffffffffffffffffffffffffffffffffffff1681526020019081526020016000208281548110612b3257612b316139d6565b5b9060005260206000209060080201600001541415612bfb5760006002600080600087815260200190815260200160002060030160009054906101000a900473ffffffffffffffffffffffffffffffffffffffff1673ffffffffffffffffffffffffffffffffffffffff1673ffffffffffffffffffffffffffffffffffffffff1681526020019081526020016000208281548110612bd257612bd16139d6565b5b906000526020600020906008020160070160006101000a81548160ff0219169083151502179055505b8080612c0690613a05565b915050612a2c565b5060005b6001600080600086815260200190815260200160002060010160009054906101000a900473ffffffffffffffffffffffffffffffffffffffff1673ffffffffffffffffffffffffffffffffffffffff1673ffffffffffffffffffffffffffffffffffffffff16815260200190815260200160002080549050811015612df457826001600080600087815260200190815260200160002060010160009054906101000a900473ffffffffffffffffffffffffffffffffffffffff1673ffffffffffffffffffffffffffffffffffffffff1673ffffffffffffffffffffffffffffffffffffffff1681526020019081526020016000208281548110612d1857612d176139d6565b5b9060005260206000209060080201600001541415612de15760006001600080600087815260200190815260200160002060010160009054906101000a900473ffffffffffffffffffffffffffffffffffffffff1673ffffffffffffffffffffffffffffffffffffffff1673ffffffffffffffffffffffffffffffffffffffff1681526020019081526020016000208281548110612db857612db76139d6565b5b906000526020600020906008020160070160006101000a81548160ff0219169083151502179055505b8080612dec90613a05565b915050612c12565b507f61b52f738537addb6fadc0fa8140d1884bce17e2281d1fe8ccaa34573701fd1e3383604051612e26929190613a4e565b60405180910390a15050565b60005b600260008373ffffffffffffffffffffffffffffffffffffffff1673ffffffffffffffffffffffffffffffffffffffff16815260200190815260200160002080549050811015612f7457600260008373ffffffffffffffffffffffffffffffffffffffff1673ffffffffffffffffffffffffffffffffffffffff1681526020019081526020016000208181548110612ed057612ecf6139d6565b5b906000526020600020906008020160070160009054906101000a900460ff1615612f6157612f60600260008473ffffffffffffffffffffffffffffffffffffffff1673ffffffffffffffffffffffffffffffffffffffff1681526020019081526020016000208281548110612f4857612f476139d6565b5b906000526020600020906008020160000154836120f4565b5b8080612f6c90613a05565b915050612e35565b506000600560008373ffffffffffffffffffffffffffffffffffffffff1673ffffffffffffffffffffffffffffffffffffffff1681526020019081526020016000205490506000600560008473ffffffffffffffffffffffffffffffffffffffff1673ffffffffffffffffffffffffffffffffffffffff168152602001908152602001600020819055508173ffffffffffffffffffffffffffffffffffffffff166108fc829081150290604051600060405180830381858888f19350505050158015613044573d6000803e3d6000fd5b507f69ca02dd4edd7bf0a4abb9ed3b7af3f14778db5d61921c7dc7cd545266326de28282604051613076929190613a4e565b60405180910390a15050565b82805461308e90613860565b90600052602060002090601f0160209004810192826130b057600085556130f7565b82601f106130c957805160ff19168380011785556130f7565b828001600101855582156130f7579182015b828111156130f65782518255916020019190600101906130db565b5b5090506131049190613148565b5090565b50805461311490613860565b6000825580601f106131265750613145565b601f0160209004906000526020600020908101906131449190613148565b5b50565b5b80821115613161576000816000905550600101613149565b5090565b6000604051905090565b600080fd5b600080fd5b600073ffffffffffffffffffffffffffffffffffffffff82169050919050565b60006131a482613179565b9050919050565b6131b481613199565b81146131bf57600080fd5b50565b6000813590506131d1816131ab565b92915050565b600080fd5b600080fd5b6000601f19601f8301169050919050565b7f4e487b7100000000000000000000000000000000000000000000000000000000600052604160045260246000fd5b61322a826131e1565b810181811067ffffffffffffffff82111715613249576132486131f2565b5b80604052505050565b600061325c613165565b90506132688282613221565b919050565b600067ffffffffffffffff821115613288576132876131f2565b5b613291826131e1565b9050602081019050919050565b82818337600083830152505050565b60006132c06132bb8461326d565b613252565b9050828152602081018484840111156132dc576132db6131dc565b5b6132e784828561329e565b509392505050565b600082601f830112613304576133036131d7565b5b81356133148482602086016132ad565b91505092915050565b6000819050919050565b6133308161331d565b811461333b57600080fd5b50565b60008135905061334d81613327565b92915050565b6000806000806080858703121561336d5761336c61316f565b5b600061337b878288016131c2565b945050602085013567ffffffffffffffff81111561339c5761339b613174565b5b6133a8878288016132ef565b93505060406133b98782880161333e565b92505060606133ca8782880161333e565b91505092959194509250565b600080604083850312156133ed576133ec61316f565b5b60006133fb858286016131c2565b925050602061340c8582860161333e565b9150509250929050565b61341f8161331d565b82525050565b61342e81613199565b82525050565b600081519050919050565b600082825260208201905092915050565b60005b8381101561346e578082015181840152602081019050613453565b8381111561347d576000848401525b50505050565b600061348e82613434565b613498818561343f565b93506134a8818560208601613450565b6134b1816131e1565b840191505092915050565b60008115159050919050565b6134d1816134bc565b82525050565b6000610100820190506134ed600083018b613416565b6134fa602083018a613425565b818103604083015261350c8189613483565b905061351b6060830188613425565b6135286080830187613416565b61353560a0830186613416565b61354260c0830185613416565b61354f60e08301846134c8565b9998505050505050505050565b6000602082840312156135725761357161316f565b5b6000613580848285016131c2565b91505092915050565b600060208201905061359e6000830184613416565b92915050565b6000602082840312156135ba576135b961316f565b5b60006135c88482850161333e565b91505092915050565b600080604083850312156135e8576135e761316f565b5b60006135f68582860161333e565b92505060206136078582860161333e565b9150509250929050565b60006040820190506136266000830185613416565b6136336020830184613416565b9392505050565b600080604083850312156136515761365061316f565b5b600061365f8582860161333e565b9250506020613670858286016131c2565b9150509250929050565b7f616d6f756e74206d7573742062652067726561746572207468616e2030000000600082015250565b60006136b0601d8361343f565b91506136bb8261367a565b602082019050919050565b600060208201905081810360008301526136df816136a3565b9050919050565b7f50617965722063616e6e6f742062652074686520706179656500000000000000600082015250565b600061371c60198361343f565b9150613727826136e6565b602082019050919050565b6000602082019050818103600083015261374b8161370f565b9050919050565b7f4e487b7100000000000000000000000000000000000000000000000000000000600052601160045260246000fd5b600061378c8261331d565b91506137978361331d565b9250827fffffffffffffffffffffffffffffffffffffffffffffffffffffffffffffffff038211156137cc576137cb613752565b5b828201905092915050565b600060a0820190506137ec6000830188613425565b6137f96020830187613425565b818103604083015261380b8186613483565b905061381a6060830185613416565b6138276080830184613416565b9695505050505050565b7f4e487b7100000000000000000000000000000000000000000000000000000000600052602260045260246000fd5b6000600282049050600182168061387857607f821691505b6020821081141561388c5761388b613831565b5b50919050565b7f7061796d656e7420646f6573206e6f7420657869737400000000000000000000600082015250565b60006138c860168361343f565b91506138d382613892565b602082019050919050565b600060208201905081810360008301526138f7816138bb565b9050919050565b7f4f6e6c792070617965722063616e20646f207468617400000000000000000000600082015250565b600061393460168361343f565b915061393f826138fe565b602082019050919050565b6000602082019050818103600083015261396381613927565b9050919050565b7f5061796d656e7420616d6f756e7420657863656564732066756e647300000000600082015250565b60006139a0601c8361343f565b91506139ab8261396a565b602082019050919050565b600060208201905081810360008301526139cf81613993565b9050919050565b7f4e487b7100000000000000000000000000000000000000000000000000000000600052603260045260246000fd5b6000613a108261331d565b91507fffffffffffffffffffffffffffffffffffffffffffffffffffffffffffffffff821415613a4357613a42613752565b5b600182019050919050565b6000604082019050613a636000830185613425565b613a706020830184613416565b9392505050565b6000613a828261331d565b9150613a8d8361331d565b925082821015613aa057613a9f613752565b5b828203905092915050565b6000606082019050613ac06000830186613425565b613acd6020830185613416565b613ada6040830184613416565b949350505050565b7f7061796d656e7420697320646561637469766174656400000000000000000000600082015250565b6000613b1860168361343f565b9150613b2382613ae2565b602082019050919050565b60006020820190508181036000830152613b4781613b0b565b9050919050565b7f4f6e6c792070617965652063616e20646f207468617400000000000000000000600082015250565b6000613b8460168361343f565b9150613b8f82613b4e565b602082019050919050565b60006020820190508181036000830152613bb381613b77565b905091905056fea264697066735822122070da0040fb4915be8c20c704587cc49f4689d3c7c1fc60c22715861d8f1f6e6864736f6c634300080a0033",
  "immutableReferences": {},
  "source": "// SPDX-License-Identifier: UNLICENSED\r\npragma solidity ^0.8.0;\r\n\r\n\r\ncontract Recur {\r\n\r\n    struct Payment {\r\n        uint id;\r\n        address from;\r\n        string label;\r\n        address to;\r\n        uint amount;\r\n        uint lastPay;\r\n        uint interval; //the period in seconds between payments, for ex. daily = 60 * 60 * 24\r\n        bool active;\r\n    }\r\n\r\n    // access a payment with all its details (from, to, amount...) with a single unique ID.\r\n    mapping(uint => Payment) public all_payments;\r\n    // keeps track of all the payments an address created\r\n    mapping(address => Payment[]) public outgoingPayments;\r\n    // keeps track of all the payments an address receives\r\n    mapping(address => Payment[]) public incomingPayments;\r\n    // acts as a unique id. always gets incremented with each creation of payment.\r\n    uint count; \r\n    // keeps track of the funding for each payment.\r\n    mapping(uint => uint) public funds;\r\n    mapping(address => uint) private toTransfer;\r\n\r\n    modifier paymentExists(uint id) {\r\n        require(all_payments[id].amount != 0, 'payment does not exist');\r\n        _;\r\n    }\r\n\r\n    modifier paymentIsActive(uint id) {\r\n        require(all_payments[id].active, 'payment is deactivated');\r\n        _;\r\n    }\r\n\r\n    modifier onlyPayer(address who, uint id) {\r\n        require(all_payments[id].from == who, 'Only payer can do that');\r\n        _;\r\n    }\r\n\r\n    modifier onlyPayee(address who, uint id) {\r\n        require(all_payments[id].to == who, 'Only payee can do that');\r\n        _;\r\n    }\r\n\r\n    event CreatePayment(address from, address to, string label, uint amount, uint interval);\r\n    event DeletePayment(address from, uint paymentId);\r\n    event DeactivatePayment(address from, uint paymentId);\r\n    event ActivatePayment(address from, uint paymentId);\r\n    event SendPayment(address from, address to, uint amount);\r\n    event DepletedFunds(uint paymentId);\r\n    event Fund(address who, uint amount, uint paymentId);\r\n    event Withdraw(address who, uint amount, uint paymentId);\r\n    event Transfer(address to, uint amount); \r\n\r\n\r\n    function createPayment(address to, string memory label, uint amount, uint interval) public {\r\n        require(amount > 0, 'amount must be greater than 0');\r\n        require(msg.sender != to, 'Payer cannot be the payee');\r\n        count += 1;\r\n\r\n        Payment memory payment = Payment(count, msg.sender, label, to, amount, block.timestamp, interval, false);\r\n\r\n        all_payments[count] = payment;\r\n\r\n        // add to outgoing array and incoming array\r\n        incomingPayments[to].push(payment);\r\n        outgoingPayments[msg.sender].push(payment);\r\n\r\n        emit CreatePayment(msg.sender, to, label, amount, interval);\r\n    }\r\n\r\n\r\n    function deletePayment(uint id) public paymentExists(id) onlyPayer(msg.sender, id) {\r\n        // transfer funds back to the sender\r\n        uint amount = funds[id];\r\n        delete funds[id];\r\n        payable(msg.sender).transfer(amount);\r\n\r\n        for (uint i = 0; i < outgoingPayments[msg.sender].length; i++) {\r\n            if (outgoingPayments[msg.sender][i].id == id) {\r\n                // delete payment from sender's outgoing payments\r\n                delete outgoingPayments[msg.sender][i];\r\n            }\r\n        }\r\n\r\n        for (uint i = 0; i < incomingPayments[all_payments[id].to].length; i++) {\r\n            if (incomingPayments[all_payments[id].to][i].id == id) {\r\n                // delete payment from receiver's incoming payments\r\n                delete incomingPayments[all_payments[id].to][i];\r\n            }\r\n        }\r\n\r\n        // delete from total payments mapping\r\n        delete all_payments[id];\r\n\r\n        emit DeletePayment(msg.sender, id);\r\n    }\r\n\r\n    function contractDeactivatePayment(uint id) private paymentExists(id) {\r\n\r\n        // if payee had unclaimed funds &\r\n        // contractCollectAllFunds has not been already called\r\n        if (getAllUnclaimedFunds(all_payments[id].to) > 0 && toTransfer[all_payments[id].to] == 0) {\r\n            contractCollectAllFunds(all_payments[id].to);\r\n        }\r\n\r\n        all_payments[id].active = false;\r\n\r\n        // update structs in array!!!\r\n        for (uint i = 0; i < incomingPayments[all_payments[id].to].length; i++) {\r\n            if (incomingPayments[all_payments[id].to][i].id == id) {\r\n                incomingPayments[all_payments[id].to][i].active = false;\r\n            }\r\n        }\r\n\r\n        for (uint i = 0; i < outgoingPayments[all_payments[id].from].length; i++) {\r\n            if (outgoingPayments[all_payments[id].from][i].id == id) {\r\n                outgoingPayments[all_payments[id].from][i].active = false;\r\n            }\r\n\r\n        }\r\n\r\n\r\n        emit DeactivatePayment(msg.sender, id);\r\n    }\r\n\r\n    function contractCollectAllFunds(address payee) private {\r\n\r\n        for (uint i=0; i < incomingPayments[payee].length; i++) {\r\n            if(incomingPayments[payee][i].active) {\r\n                collectFundsById(incomingPayments[payee][i].id, payee); \r\n            }\r\n        }\r\n\r\n        uint to_transfer = toTransfer[payee];\r\n        toTransfer[payee] = 0;\r\n        payable(payee).transfer(to_transfer);\r\n        emit Transfer(payee, to_transfer);\r\n\r\n    }\r\n\r\n    // so that the payer can deactivate payment and also the contract when funds get depleted\r\n    function deactivatePayment(uint id) public paymentExists(id) onlyPayer(msg.sender, id) {\r\n        contractDeactivatePayment(id);\r\n    }\r\n    \r\n    function activatePayment(uint id) public paymentExists(id) onlyPayer(msg.sender, id) {\r\n        require(funds[id] >= all_payments[id].amount, 'Payment amount exceeds funds');\r\n        all_payments[id].active = true;\r\n        all_payments[id].lastPay =  block.timestamp;\r\n\r\n        // update structs in array!!!\r\n        for (uint i = 0; i < incomingPayments[all_payments[id].to].length; i++) {\r\n            if (incomingPayments[all_payments[id].to][i].id == id) {\r\n                incomingPayments[all_payments[id].to][i].active = true;\r\n            }\r\n        }\r\n\r\n        for (uint i = 0; i < outgoingPayments[all_payments[id].from].length; i++) {\r\n            if (outgoingPayments[all_payments[id].from][i].id == id) {\r\n                outgoingPayments[all_payments[id].from][i].active = true;\r\n            }\r\n\r\n        }\r\n\r\n        emit ActivatePayment(msg.sender, id);\r\n    }\r\n\r\n    function getNumOutgoingPayments(address payer) public view returns (uint) {\r\n        return outgoingPayments[payer].length;\r\n    }\r\n\r\n    function getNumIncomingPayments(address payee) public view returns (uint) {\r\n        return incomingPayments[payee].length;\r\n    }\r\n\r\n    // determine how much funds are available to collect from an incoming payment by id\r\n    function getUnclaimedFundsById(uint id) public view paymentExists(id) paymentIsActive(id) returns (uint, uint) {\r\n\r\n        uint availableToCollect = 0;\r\n        uint paymentFund = funds[id];\r\n        uint last_pay = all_payments[id].lastPay;\r\n\r\n        Payment memory payment = all_payments[id];\r\n        while (block.timestamp >= payment.interval + last_pay && paymentFund >= payment.amount) {\r\n            availableToCollect += payment.amount;\r\n            paymentFund -= payment.amount;\r\n            last_pay = last_pay + payment.interval;\r\n        }\r\n\r\n\r\n        return (availableToCollect, last_pay);\r\n    }\r\n\r\n    // determine how much funds are available to collect from all incoming payments\r\n    function getAllUnclaimedFunds(address payee) public view returns (uint) {\r\n        uint fundsToCollect = 0;\r\n        uint claimableFunds;\r\n\r\n        for (uint i=0; i < incomingPayments[payee].length; i++) {\r\n            if (incomingPayments[payee][i].active == true) {\r\n                (claimableFunds,) = getUnclaimedFundsById(incomingPayments[payee][i].id);\r\n                fundsToCollect += claimableFunds;\r\n            }\r\n        }\r\n\r\n        return fundsToCollect;\r\n    }\r\n\r\n    // need to collect each funds separately because for each payment the funder is different.\r\n    function collectFundsById(uint id, address payee) public payable paymentExists(id) paymentIsActive(id) onlyPayee(payee, id) {\r\n\r\n        (uint fundsToCollect, uint last_pay) = getUnclaimedFundsById(id);\r\n        funds[id] -= fundsToCollect;\r\n        // update lastPay\r\n        all_payments[id].lastPay = last_pay;\r\n        // update structs in array!!!\r\n        for (uint i = 0; i < incomingPayments[all_payments[id].to].length; i++) {\r\n            if (incomingPayments[all_payments[id].to][i].id == id) {\r\n                incomingPayments[all_payments[id].to][i].lastPay = last_pay;\r\n            }\r\n        }\r\n\r\n        for (uint i = 0; i < outgoingPayments[all_payments[id].from].length; i++) {\r\n            if (outgoingPayments[all_payments[id].from][i].id == id) {\r\n                outgoingPayments[all_payments[id].from][i].lastPay = last_pay;\r\n            }\r\n\r\n        }\r\n\r\n        toTransfer[payee] += fundsToCollect;\r\n\r\n        // if what's left in the fund is insufficient for the next payment,\r\n        // deactivate it.\r\n        if (funds[id] < all_payments[id].amount) {\r\n            emit DepletedFunds(id);\r\n            contractDeactivatePayment(id);\r\n        }\r\n\r\n    }\r\n\r\n    function collectAllFunds() public {\r\n        contractCollectAllFunds(msg.sender);\r\n    }\r\n\r\n\r\n    function fund(uint id) public payable onlyPayer(msg.sender, id) {\r\n        require(funds[id] + msg.value >= all_payments[id].amount, 'Payment amount exceeds funds');\r\n        funds[id] += msg.value;\r\n\r\n        emit Fund(msg.sender, msg.value, id);\r\n    }\r\n\r\n    function withdraw(uint id, uint amount) public payable onlyPayer(msg.sender, id) {\r\n        funds[id] -= amount;\r\n        if (funds[id] < all_payments[id].amount) {\r\n            contractDeactivatePayment(id);\r\n        }\r\n\r\n        payable(msg.sender).transfer(amount);\r\n        emit Withdraw(msg.sender, amount, id);\r\n    }\r\n \r\n\r\n}",
  "sourcePath": "C:\\Users\\97252\\DApp\\recurring-payments-ethereum\\contracts\\Recur.sol",
  "compiler": {
    "name": "solc",
    "version": "0.8.10+commit.fc410830.Emscripten.clang"
  },
  "schemaVersion": "3.4.4",
  "updatedAt": "2022-11-30T08:09:46.693Z",
  "devdoc": {
    "kind": "dev",
    "methods": {},
    "version": 1
  },
  "userdoc": {
    "kind": "user",
    "methods": {},
    "version": 1
  }
}