{
    "contractName": "RecurringPayment",
    "abi": [
        {
            "anonymous": false,
            "inputs": [
                {
                    "indexed": false,
                    "internalType": "address",
                    "name": "cancler",
                    "type": "address"
                },
                {
                    "indexed": false,
                    "internalType": "uint256",
                    "name": "id",
                    "type": "uint256"
                },
                {
                    "indexed": false,
                    "internalType": "uint256",
                    "name": "when",
                    "type": "uint256"
                }
            ],
            "name": "PaymentCancelled",
            "type": "event"
        },
        {
            "anonymous": false,
            "inputs": [
                {
                    "indexed": false,
                    "internalType": "address",
                    "name": "from",
                    "type": "address"
                },
                {
                    "indexed": false,
                    "internalType": "address",
                    "name": "to",
                    "type": "address"
                },
                {
                    "indexed": false,
                    "internalType": "uint256",
                    "name": "amount",
                    "type": "uint256"
                },
                {
                    "indexed": false,
                    "internalType": "uint256",
                    "name": "frequency",
                    "type": "uint256"
                }
            ],
            "name": "PaymentCreated",
            "type": "event"
        },
        {
            "anonymous": false,
            "inputs": [
                {
                    "indexed": false,
                    "internalType": "address",
                    "name": "suspender",
                    "type": "address"
                },
                {
                    "indexed": false,
                    "internalType": "uint256",
                    "name": "id",
                    "type": "uint256"
                },
                {
                    "indexed": false,
                    "internalType": "uint256",
                    "name": "when",
                    "type": "uint256"
                }
            ],
            "name": "PaymentResumed",
            "type": "event"
        },
        {
            "anonymous": false,
            "inputs": [
                {
                    "indexed": false,
                    "internalType": "address",
                    "name": "from",
                    "type": "address"
                },
                {
                    "indexed": false,
                    "internalType": "address",
                    "name": "to",
                    "type": "address"
                },
                {
                    "indexed": false,
                    "internalType": "uint256",
                    "name": "amount",
                    "type": "uint256"
                }
            ],
            "name": "PaymentSent",
            "type": "event"
        },
        {
            "anonymous": false,
            "inputs": [
                {
                    "indexed": false,
                    "internalType": "address",
                    "name": "suspender",
                    "type": "address"
                },
                {
                    "indexed": false,
                    "internalType": "uint256",
                    "name": "id",
                    "type": "uint256"
                },
                {
                    "indexed": false,
                    "internalType": "uint256",
                    "name": "when",
                    "type": "uint256"
                }
            ],
            "name": "PaymentSuspended",
            "type": "event"
        },
        {
            "inputs": [
                {
                    "internalType": "address",
                    "name": "",
                    "type": "address"
                },
                {
                    "internalType": "uint256",
                    "name": "",
                    "type": "uint256"
                }
            ],
            "name": "all_payments",
            "outputs": [
                {
                    "internalType": "address",
                    "name": "to",
                    "type": "address"
                },
                {
                    "internalType": "uint256",
                    "name": "amount",
                    "type": "uint256"
                },
                {
                    "internalType": "uint256",
                    "name": "last_pay",
                    "type": "uint256"
                },
                {
                    "internalType": "uint256",
                    "name": "frequency",
                    "type": "uint256"
                },
                {
                    "internalType": "bool",
                    "name": "active",
                    "type": "bool"
                }
            ],
            "stateMutability": "view",
            "type": "function"
        },
        {
            "inputs": [
                {
                    "internalType": "address",
                    "name": "",
                    "type": "address"
                }
            ],
            "name": "created",
            "outputs": [
                {
                    "internalType": "uint256",
                    "name": "",
                    "type": "uint256"
                }
            ],
            "stateMutability": "view",
            "type": "function"
        },
        {
            "inputs": [
                {
                    "internalType": "address",
                    "name": "",
                    "type": "address"
                }
            ],
            "name": "funding",
            "outputs": [
                {
                    "internalType": "uint256",
                    "name": "",
                    "type": "uint256"
                }
            ],
            "stateMutability": "view",
            "type": "function"
        },
        {
            "inputs": [
                {
                    "internalType": "address",
                    "name": "",
                    "type": "address"
                }
            ],
            "name": "has_payments",
            "outputs": [
                {
                    "internalType": "bool",
                    "name": "",
                    "type": "bool"
                }
            ],
            "stateMutability": "view",
            "type": "function"
        },
        {
            "stateMutability": "payable",
            "type": "receive"
        },
        {
            "inputs": [
                {
                    "internalType": "address",
                    "name": "to",
                    "type": "address"
                },
                {
                    "internalType": "uint256",
                    "name": "amount",
                    "type": "uint256"
                },
                {
                    "internalType": "uint256",
                    "name": "frequency",
                    "type": "uint256"
                }
            ],
            "name": "createPayment",
            "outputs": [],
            "stateMutability": "nonpayable",
            "type": "function"
        },
        {
            "inputs": [
                {
                    "internalType": "address",
                    "name": "from",
                    "type": "address"
                },
                {
                    "internalType": "uint256",
                    "name": "id",
                    "type": "uint256"
                }
            ],
            "name": "executePayment",
            "outputs": [
                {
                    "internalType": "bool",
                    "name": "",
                    "type": "bool"
                }
            ],
            "stateMutability": "payable",
            "type": "function"
        },
        {
            "inputs": [
                {
                    "internalType": "uint256",
                    "name": "id",
                    "type": "uint256"
                }
            ],
            "name": "cancelPayment",
            "outputs": [],
            "stateMutability": "nonpayable",
            "type": "function"
        },
        {
            "inputs": [
                {
                    "internalType": "uint256",
                    "name": "id",
                    "type": "uint256"
                }
            ],
            "name": "suspendPayment",
            "outputs": [],
            "stateMutability": "nonpayable",
            "type": "function"
        },
        {
            "inputs": [
                {
                    "internalType": "uint256",
                    "name": "id",
                    "type": "uint256"
                }
            ],
            "name": "resumePayment",
            "outputs": [],
            "stateMutability": "nonpayable",
            "type": "function"
        },
        {
            "inputs": [
                {
                    "internalType": "uint256",
                    "name": "amount",
                    "type": "uint256"
                }
            ],
            "name": "withdraw",
            "outputs": [],
            "stateMutability": "payable",
            "type": "function"
        }
    ],
    "bytecode": "0x608060405234801561001057600080fd5b50611831806100206000396000f3fe6080604052600436106100955760003560e01c80638422927d116100595780638422927d146101df578063d42efd8314610208578063d6d8dd0a14610245578063ef0bba2c14610286578063f585a1ee146102b6576100f2565b8063049f2d8a146100f75780632e1a7d4d146101345780633d931b281461015057806368b43168146101795780637b5fc7eb146101a2576100f2565b366100f25734600160003373ffffffffffffffffffffffffffffffffffffffff1673ffffffffffffffffffffffffffffffffffffffff16815260200190815260200160002060008282546100e9919061119a565b92505081905550005b600080fd5b34801561010357600080fd5b5061011e60048036038101906101199190611253565b6102df565b60405161012b919061128f565b60405180910390f35b61014e600480360381019061014991906112d6565b6102f7565b005b34801561015c57600080fd5b50610177600480360381019061017291906112d6565b610419565b005b34801561018557600080fd5b506101a0600480360381019061019b91906112d6565b61055c565b005b3480156101ae57600080fd5b506101c960048036038101906101c49190611253565b6106f6565b6040516101d6919061131e565b60405180910390f35b3480156101eb57600080fd5b50610206600480360381019061020191906112d6565b610716565b005b34801561021457600080fd5b5061022f600480360381019061022a9190611253565b610893565b60405161023c919061128f565b60405180910390f35b34801561025157600080fd5b5061026c60048036038101906102679190611339565b6108ab565b60405161027d959493929190611388565b60405180910390f35b6102a0600480360381019061029b9190611339565b61091b565b6040516102ad919061131e565b60405180910390f35b3480156102c257600080fd5b506102dd60048036038101906102d891906113db565b610c8a565b005b60016020528060005260406000206000915090505481565b600160003373ffffffffffffffffffffffffffffffffffffffff1673ffffffffffffffffffffffffffffffffffffffff16815260200190815260200160002054811115610379576040517f08c379a0000000000000000000000000000000000000000000000000000000008152600401610370906114b1565b60405180910390fd5b80600160003373ffffffffffffffffffffffffffffffffffffffff1673ffffffffffffffffffffffffffffffffffffffff16815260200190815260200160002060008282546103c891906114d1565b925050819055503373ffffffffffffffffffffffffffffffffffffffff166108fc829081150290604051600060405180830381858888f19350505050158015610415573d6000803e3d6000fd5b5050565b338160008060008473ffffffffffffffffffffffffffffffffffffffff1673ffffffffffffffffffffffffffffffffffffffff16815260200190815260200160002060008381526020019081526020016000206001015414156104b1576040517f08c379a00000000000000000000000000000000000000000000000000000000081526004016104a890611551565b60405180910390fd5b60008060003373ffffffffffffffffffffffffffffffffffffffff1673ffffffffffffffffffffffffffffffffffffffff168152602001908152602001600020600085815260200190815260200160002060040160006101000a81548160ff0219169083151502179055507f256f6c7136a700320426eeb79b9eacd98397b1736d6e5092966a77c5a9a6d28b33844260405161054f93929190611571565b60405180910390a1505050565b338160008060008473ffffffffffffffffffffffffffffffffffffffff1673ffffffffffffffffffffffffffffffffffffffff16815260200190815260200160002060008381526020019081526020016000206001015414156105f4576040517f08c379a00000000000000000000000000000000000000000000000000000000081526004016105eb90611551565b60405180910390fd5b60016000803373ffffffffffffffffffffffffffffffffffffffff1673ffffffffffffffffffffffffffffffffffffffff168152602001908152602001600020600085815260200190815260200160002060040160006101000a81548160ff021916908315150217905550426000803373ffffffffffffffffffffffffffffffffffffffff1673ffffffffffffffffffffffffffffffffffffffff1681526020019081526020016000206000858152602001908152602001600020600201819055507f508a94a76399c5fc11f4b556f164bfeb73ce905c90ee01a7b9bb46afd38e542c3384426040516106e993929190611571565b60405180910390a1505050565b60036020528060005260406000206000915054906101000a900460ff1681565b338160008060008473ffffffffffffffffffffffffffffffffffffffff1673ffffffffffffffffffffffffffffffffffffffff16815260200190815260200160002060008381526020019081526020016000206001015414156107ae576040517f08c379a00000000000000000000000000000000000000000000000000000000081526004016107a590611551565b60405180910390fd5b6000803373ffffffffffffffffffffffffffffffffffffffff1673ffffffffffffffffffffffffffffffffffffffff1681526020019081526020016000206000848152602001908152602001600020600080820160006101000a81549073ffffffffffffffffffffffffffffffffffffffff02191690556001820160009055600282016000905560038201600090556004820160006101000a81549060ff021916905550507f970e04a6a710e28811b167ae1347d4060fbcae7b29864e63b3531a0980fd1f4833844260405161088693929190611571565b60405180910390a1505050565b60026020528060005260406000206000915090505481565b6000602052816000526040600020602052806000526040600020600091509150508060000160009054906101000a900473ffffffffffffffffffffffffffffffffffffffff16908060010154908060020154908060030154908060040160009054906101000a900460ff16905085565b6000828260008060008473ffffffffffffffffffffffffffffffffffffffff1673ffffffffffffffffffffffffffffffffffffffff16815260200190815260200160002060008381526020019081526020016000206001015414156109b5576040517f08c379a00000000000000000000000000000000000000000000000000000000081526004016109ac90611551565b60405180910390fd5b60008060008773ffffffffffffffffffffffffffffffffffffffff1673ffffffffffffffffffffffffffffffffffffffff16815260200190815260200160002060008681526020019081526020016000209050600160008773ffffffffffffffffffffffffffffffffffffffff1673ffffffffffffffffffffffffffffffffffffffff1681526020019081526020016000205481600101541115610a8e576040517f08c379a0000000000000000000000000000000000000000000000000000000008152600401610a85906115f4565b60405180910390fd5b8060040160009054906101000a900460ff16610adf576040517f08c379a0000000000000000000000000000000000000000000000000000000008152600401610ad690611660565b60405180910390fd5b80600201548160030154610af3919061119a565b421015610b35576040517f08c379a0000000000000000000000000000000000000000000000000000000008152600401610b2c906116cc565b60405180910390fd5b8060010154600160008873ffffffffffffffffffffffffffffffffffffffff1673ffffffffffffffffffffffffffffffffffffffff1681526020019081526020016000206000828254610b8891906114d1565b925050819055508060000160009054906101000a900473ffffffffffffffffffffffffffffffffffffffff1673ffffffffffffffffffffffffffffffffffffffff166108fc82600101549081150290604051600060405180830381858888f19350505050158015610bfd573d6000803e3d6000fd5b507fd52bd61f7c422d441e024604f4517878fd3305d6acf0fe37baef23ed21af6bc9868260000160009054906101000a900473ffffffffffffffffffffffffffffffffffffffff168360010154604051610c59939291906116ec565b60405180910390a180600301548160020154610c75919061119a565b81600201819055506001935050505092915050565b60008211610ccd576040517f08c379a0000000000000000000000000000000000000000000000000000000008152600401610cc49061176f565b60405180910390fd5b600160003373ffffffffffffffffffffffffffffffffffffffff1673ffffffffffffffffffffffffffffffffffffffff16815260200190815260200160002054821115610d4f576040517f08c379a0000000000000000000000000000000000000000000000000000000008152600401610d46906115f4565b60405180910390fd5b60008111610d92576040517f08c379a0000000000000000000000000000000000000000000000000000000008152600401610d89906117db565b60405180910390fd5b600360003373ffffffffffffffffffffffffffffffffffffffff1673ffffffffffffffffffffffffffffffffffffffff16815260200190815260200160002060009054906101000a900460ff16610fa25760006040518060a001604052808573ffffffffffffffffffffffffffffffffffffffff168152602001848152602001428152602001838152602001600115158152509050806000803373ffffffffffffffffffffffffffffffffffffffff1673ffffffffffffffffffffffffffffffffffffffff168152602001908152602001600020600080815260200190815260200160002060008201518160000160006101000a81548173ffffffffffffffffffffffffffffffffffffffff021916908373ffffffffffffffffffffffffffffffffffffffff16021790555060208201518160010155604082015181600201556060820151816003015560808201518160040160006101000a81548160ff0219169083151502179055509050506001600360003373ffffffffffffffffffffffffffffffffffffffff1673ffffffffffffffffffffffffffffffffffffffff16815260200190815260200160002060006101000a81548160ff0219169083151502179055506001600260003373ffffffffffffffffffffffffffffffffffffffff1673ffffffffffffffffffffffffffffffffffffffff168152602001908152602001600020819055505061115c565b6000600260003373ffffffffffffffffffffffffffffffffffffffff1673ffffffffffffffffffffffffffffffffffffffff16815260200190815260200160002054905060006040518060a001604052808673ffffffffffffffffffffffffffffffffffffffff168152602001858152602001428152602001848152602001600115158152509050806000803373ffffffffffffffffffffffffffffffffffffffff1673ffffffffffffffffffffffffffffffffffffffff168152602001908152602001600020600084815260200190815260200160002060008201518160000160006101000a81548173ffffffffffffffffffffffffffffffffffffffff021916908373ffffffffffffffffffffffffffffffffffffffff16021790555060208201518160010155604082015181600201556060820151816003015560808201518160040160006101000a81548160ff0219169083151502179055509050506001600260003373ffffffffffffffffffffffffffffffffffffffff1673ffffffffffffffffffffffffffffffffffffffff1681526020019081526020016000206000828254611152919061119a565b9250508190555050505b505050565b6000819050919050565b7f4e487b7100000000000000000000000000000000000000000000000000000000600052601160045260246000fd5b60006111a582611161565b91506111b083611161565b9250827fffffffffffffffffffffffffffffffffffffffffffffffffffffffffffffffff038211156111e5576111e461116b565b5b828201905092915050565b600080fd5b600073ffffffffffffffffffffffffffffffffffffffff82169050919050565b6000611220826111f5565b9050919050565b61123081611215565b811461123b57600080fd5b50565b60008135905061124d81611227565b92915050565b600060208284031215611269576112686111f0565b5b60006112778482850161123e565b91505092915050565b61128981611161565b82525050565b60006020820190506112a46000830184611280565b92915050565b6112b381611161565b81146112be57600080fd5b50565b6000813590506112d0816112aa565b92915050565b6000602082840312156112ec576112eb6111f0565b5b60006112fa848285016112c1565b91505092915050565b60008115159050919050565b61131881611303565b82525050565b6000602082019050611333600083018461130f565b92915050565b600080604083850312156113505761134f6111f0565b5b600061135e8582860161123e565b925050602061136f858286016112c1565b9150509250929050565b61138281611215565b82525050565b600060a08201905061139d6000830188611379565b6113aa6020830187611280565b6113b76040830186611280565b6113c46060830185611280565b6113d1608083018461130f565b9695505050505050565b6000806000606084860312156113f4576113f36111f0565b5b60006114028682870161123e565b9350506020611413868287016112c1565b9250506040611424868287016112c1565b9150509250925092565b600082825260208201905092915050565b7f616d6f756e7420746f207769746864726177206973206772656174657220746860008201527f616e2066756e6473000000000000000000000000000000000000000000000000602082015250565b600061149b60288361142e565b91506114a68261143f565b604082019050919050565b600060208201905081810360008301526114ca8161148e565b9050919050565b60006114dc82611161565b91506114e783611161565b9250828210156114fa576114f961116b565b5b828203905092915050565b7f7061796d656e7420646f6573206e6f7420657869737400000000000000000000600082015250565b600061153b60168361142e565b915061154682611505565b602082019050919050565b6000602082019050818103600083015261156a8161152e565b9050919050565b60006060820190506115866000830186611379565b6115936020830185611280565b6115a06040830184611280565b949350505050565b7f616d6f756e7420657863656564732066756e6473000000000000000000000000600082015250565b60006115de60148361142e565b91506115e9826115a8565b602082019050919050565b6000602082019050818103600083015261160d816115d1565b9050919050565b7f7061796d656e7420697320646561637469766174656400000000000000000000600082015250565b600061164a60168361142e565b915061165582611614565b602082019050919050565b600060208201905081810360008301526116798161163d565b9050919050565b7f7061796d656e74206973206e6f74206475652079657400000000000000000000600082015250565b60006116b660168361142e565b91506116c182611680565b602082019050919050565b600060208201905081810360008301526116e5816116a9565b9050919050565b60006060820190506117016000830186611379565b61170e6020830185611379565b61171b6040830184611280565b949350505050565b7f616d6f756e74206d7573742062652067726561746572207468616e2030000000600082015250565b6000611759601d8361142e565b915061176482611723565b602082019050919050565b600060208201905081810360008301526117888161174c565b9050919050565b7f6672657175656e6379206d7573742062652067726561746572207468616e2030600082015250565b60006117c560208361142e565b91506117d08261178f565b602082019050919050565b600060208201905081810360008301526117f4816117b8565b905091905056fea264697066735822122034ba175312f70aef478854ddd2a1237e08d51996b6022212ce052b94482904c064736f6c634300080a0033",
    "immutableReferences": {},
    "source": "pragma solidity ^0.8.0;\r\npragma experimental ABIEncoderV2;\r\n\r\n/* Recurring payments on the ethereum blockchain */\r\n\r\ncontract RecurringPayment {\r\n\r\n    struct Payment {\r\n        address to;\r\n        uint amount;\r\n        uint last_pay; // in seconds, epoch\r\n        uint frequency; //the period in seconds between payments, for ex. daily = 60 * 60 * 24\r\n        bool active; // user can suspend payment\r\n    }\r\n\r\n    // payer => (payment id => Payment struct)\r\n    // id starts from 0 and gets incremented by one each time payer creates a new payment\r\n    mapping(address => mapping(uint => Payment)) public all_payments;\r\n    // maps address to the amount with which the address funded the contract\r\n    mapping(address => uint) public funding;\r\n    // maps address to number of payments the address created, used as an id for payments\r\n    mapping(address => uint) public created;\r\n    // user => has created any payments\r\n    mapping(address => bool) public has_payments;\r\n\r\n    modifier paymentExists(address from, uint id) {\r\n        require(all_payments[from][id].amount != 0, 'payment does not exist');\r\n        _;\r\n    }\r\n\r\n    event PaymentCreated(address from, address to, uint amount, uint frequency);\r\n    event PaymentCancelled(address cancler, uint id, uint when);\r\n    event PaymentSuspended(address suspender, uint id, uint when);\r\n    event PaymentResumed(address suspender, uint id, uint when);\r\n    event PaymentSent(address from, address to, uint amount);\r\n\r\n\r\n    function createPayment(address to, uint amount, uint frequency) external {\r\n        require(amount > 0, 'amount must be greater than 0');\r\n        require(amount <= funding[msg.sender], 'amount exceeds funds');\r\n        require(frequency > 0, 'frequency must be greater than 0');\r\n\r\n        // if msg.sender's first payment\r\n        if(!has_payments[msg.sender]) {\r\n            // create a new Payment struct\r\n            Payment memory new_payment = Payment(to, amount, block.timestamp, frequency, true);\r\n\r\n            all_payments[msg.sender][0] = new_payment; // add struct to mapping\r\n            has_payments[msg.sender] = true;\r\n\r\n            created[msg.sender] = 1; // set number of payments msg.sender has created to one\r\n            \r\n        } \r\n        else {\r\n             uint payment_id = created[msg.sender];\r\n            // create a new Payment struct\r\n            Payment memory new_payment = Payment(to, amount, block.timestamp, frequency, true);\r\n\r\n             all_payments[msg.sender][payment_id] = new_payment; // add struct to mapping\r\n             created[msg.sender] += 1; // increment number of payments msg.sender has created by one\r\n        }\r\n\r\n    }\r\n\r\n    function executePayment(address from, uint id) public payable paymentExists(from, id) returns (bool) {\r\n        // get payment struct\r\n        Payment storage payment = all_payments[from][id];\r\n        require(payment.amount <= funding[from], 'amount exceeds funds');\r\n        require(payment.active, 'payment is deactivated');\r\n        require(block.timestamp >= payment.frequency + payment.last_pay, 'payment is not due yet');\r\n\r\n        funding[from] -= payment.amount;\r\n        payable(payment.to).transfer(payment.amount);\r\n        emit PaymentSent(from, payment.to, payment.amount);\r\n\r\n        // set the time for the next payment\r\n        payment.last_pay = payment.last_pay + payment.frequency;\r\n\r\n        return true;\r\n    }\r\n\r\n    function cancelPayment(uint id) external paymentExists(msg.sender, id) {\r\n        delete all_payments[msg.sender][id];\r\n        emit PaymentCancelled(msg.sender, id, block.timestamp);\r\n    }\r\n\r\n    function suspendPayment(uint id) external paymentExists(msg.sender, id) {\r\n        all_payments[msg.sender][id].active = false;\r\n        emit PaymentSuspended(msg.sender, id, block.timestamp);\r\n    }\r\n\r\n    function resumePayment(uint id) external paymentExists(msg.sender, id) {\r\n        all_payments[msg.sender][id].active = true;\r\n        all_payments[msg.sender][id].last_pay = block.timestamp;\r\n        emit PaymentResumed(msg.sender, id, block.timestamp);\r\n    }\r\n\r\n    // user withdraw funds\r\n    function withdraw(uint amount) external payable {\r\n        require(amount <= funding[msg.sender], 'amount to withdraw is greater than funds');\r\n        funding[msg.sender] -= amount;\r\n        payable(msg.sender).transfer(amount);\r\n    }\r\n\r\n    // user funds the contract\r\n    receive() external payable {\r\n        funding[msg.sender] += msg.value;\r\n    }\r\n}\r\n",
    "sourcePath": "C:\\Users\\97252\\recurring-payments-dapp\\recurring-payments-ethereum\\contracts\\RecurringPayment.sol",
    "compiler": {
        "name": "solc",
        "version": "0.8.10+commit.fc410830.Emscripten.clang"
    },
    "schemaVersion": "3.4.4",
    "updatedAt": "2022-01-06T10:15:50.474Z",
    "devdoc": {
        "kind": "dev",
        "methods": {},
        "version": 1
    },
    "userdoc": {
        "kind": "user",
        "methods": {},
        "version": 1
    }
}