{
  "contractName": "Payment",
  "abi": [
    {
      "anonymous": false,
      "inputs": [
        {
          "indexed": false,
          "internalType": "address",
          "name": "cancler",
          "type": "address"
        },
        {
          "indexed": false,
          "internalType": "uint256",
          "name": "id",
          "type": "uint256"
        },
        {
          "indexed": false,
          "internalType": "uint256",
          "name": "when",
          "type": "uint256"
        }
      ],
      "name": "PaymentCancelled",
      "type": "event"
    },
    {
      "anonymous": false,
      "inputs": [
        {
          "indexed": false,
          "internalType": "address",
          "name": "from",
          "type": "address"
        },
        {
          "indexed": false,
          "internalType": "address",
          "name": "to",
          "type": "address"
        },
        {
          "indexed": false,
          "internalType": "uint256",
          "name": "amount",
          "type": "uint256"
        },
        {
          "indexed": false,
          "internalType": "uint256",
          "name": "frequency",
          "type": "uint256"
        }
      ],
      "name": "PaymentCreated",
      "type": "event"
    },
    {
      "anonymous": false,
      "inputs": [
        {
          "indexed": false,
          "internalType": "address",
          "name": "suspender",
          "type": "address"
        },
        {
          "indexed": false,
          "internalType": "uint256",
          "name": "id",
          "type": "uint256"
        },
        {
          "indexed": false,
          "internalType": "uint256",
          "name": "when",
          "type": "uint256"
        }
      ],
      "name": "PaymentResumed",
      "type": "event"
    },
    {
      "anonymous": false,
      "inputs": [
        {
          "indexed": false,
          "internalType": "address",
          "name": "from",
          "type": "address"
        },
        {
          "indexed": false,
          "internalType": "address",
          "name": "to",
          "type": "address"
        },
        {
          "indexed": false,
          "internalType": "uint256",
          "name": "amount",
          "type": "uint256"
        }
      ],
      "name": "PaymentSent",
      "type": "event"
    },
    {
      "anonymous": false,
      "inputs": [
        {
          "indexed": false,
          "internalType": "address",
          "name": "suspender",
          "type": "address"
        },
        {
          "indexed": false,
          "internalType": "uint256",
          "name": "id",
          "type": "uint256"
        },
        {
          "indexed": false,
          "internalType": "uint256",
          "name": "when",
          "type": "uint256"
        }
      ],
      "name": "PaymentSuspended",
      "type": "event"
    },
    {
      "inputs": [
        {
          "internalType": "address",
          "name": "",
          "type": "address"
        }
      ],
      "name": "created",
      "outputs": [
        {
          "internalType": "uint256",
          "name": "",
          "type": "uint256"
        }
      ],
      "stateMutability": "view",
      "type": "function"
    },
    {
      "inputs": [
        {
          "internalType": "address",
          "name": "",
          "type": "address"
        }
      ],
      "name": "has_payments",
      "outputs": [
        {
          "internalType": "bool",
          "name": "",
          "type": "bool"
        }
      ],
      "stateMutability": "view",
      "type": "function"
    },
    {
      "stateMutability": "payable",
      "type": "receive"
    },
    {
      "inputs": [
        {
          "internalType": "address",
          "name": "to",
          "type": "address"
        },
        {
          "internalType": "uint256",
          "name": "amount",
          "type": "uint256"
        },
        {
          "internalType": "uint256",
          "name": "frequency",
          "type": "uint256"
        }
      ],
      "name": "createPayment",
      "outputs": [],
      "stateMutability": "nonpayable",
      "type": "function"
    },
    {
      "inputs": [
        {
          "internalType": "address",
          "name": "from",
          "type": "address"
        },
        {
          "internalType": "address",
          "name": "to",
          "type": "address"
        },
        {
          "internalType": "uint256",
          "name": "amount",
          "type": "uint256"
        },
        {
          "internalType": "uint256",
          "name": "id",
          "type": "uint256"
        }
      ],
      "name": "executePayment",
      "outputs": [
        {
          "internalType": "bool",
          "name": "",
          "type": "bool"
        }
      ],
      "stateMutability": "payable",
      "type": "function"
    },
    {
      "inputs": [
        {
          "internalType": "uint256",
          "name": "id",
          "type": "uint256"
        }
      ],
      "name": "cancelPayment",
      "outputs": [],
      "stateMutability": "nonpayable",
      "type": "function"
    },
    {
      "inputs": [
        {
          "internalType": "uint256",
          "name": "id",
          "type": "uint256"
        }
      ],
      "name": "suspendPayment",
      "outputs": [],
      "stateMutability": "nonpayable",
      "type": "function"
    },
    {
      "inputs": [
        {
          "internalType": "uint256",
          "name": "id",
          "type": "uint256"
        }
      ],
      "name": "resumePayment",
      "outputs": [],
      "stateMutability": "nonpayable",
      "type": "function"
    },
    {
      "inputs": [
        {
          "internalType": "uint256",
          "name": "amount",
          "type": "uint256"
        }
      ],
      "name": "withdraw",
      "outputs": [],
      "stateMutability": "payable",
      "type": "function"
    }
  ],
  "bytecode": "0x608060405234801561001057600080fd5b506114ce806100206000396000f3fe60806040526004361061007f5760003560e01c80638422927d1161004e5780638422927d1461018c578063a65e8e39146101b5578063d42efd83146101e5578063f585a1ee14610222576100dc565b80632e1a7d4d146100e15780633d931b28146100fd57806368b43168146101265780637b5fc7eb1461014f576100dc565b366100dc5734600160003373ffffffffffffffffffffffffffffffffffffffff1673ffffffffffffffffffffffffffffffffffffffff16815260200190815260200160002060008282546100d39190610e97565b92505081905550005b600080fd5b6100fb60048036038101906100f69190610f1e565b61024b565b005b34801561010957600080fd5b50610124600480360381019061011f9190610f1e565b610317565b005b34801561013257600080fd5b5061014d60048036038101906101489190610f1e565b610457565b005b34801561015b57600080fd5b5061017660048036038101906101719190610fa9565b610597565b6040516101839190610ff1565b60405180910390f35b34801561019857600080fd5b506101b360048036038101906101ae9190610f1e565b6105b7565b005b6101cf60048036038101906101ca919061100c565b610731565b6040516101dc9190610ff1565b60405180910390f35b3480156101f157600080fd5b5061020c60048036038101906102079190610fa9565b6109f1565b6040516102199190611082565b60405180910390f35b34801561022e57600080fd5b506102496004803603810190610244919061109d565b610a09565b005b600160003373ffffffffffffffffffffffffffffffffffffffff1673ffffffffffffffffffffffffffffffffffffffff168152602001908152602001600020548111156102cd576040517f08c379a00000000000000000000000000000000000000000000000000000000081526004016102c490611173565b60405180910390fd5b3373ffffffffffffffffffffffffffffffffffffffff166108fc829081150290604051600060405180830381858888f19350505050158015610313573d6000803e3d6000fd5b5050565b8060008060003373ffffffffffffffffffffffffffffffffffffffff1673ffffffffffffffffffffffffffffffffffffffff168152602001908152602001600020600083815260200190815260200160002060010154146103ad576040517f08c379a00000000000000000000000000000000000000000000000000000000081526004016103a4906111df565b60405180910390fd5b60008060003373ffffffffffffffffffffffffffffffffffffffff1673ffffffffffffffffffffffffffffffffffffffff168152602001908152602001600020600084815260200190815260200160002060040160006101000a81548160ff0219169083151502179055507f256f6c7136a700320426eeb79b9eacd98397b1736d6e5092966a77c5a9a6d28b33834260405161044b9392919061120e565b60405180910390a15050565b8060008060003373ffffffffffffffffffffffffffffffffffffffff1673ffffffffffffffffffffffffffffffffffffffff168152602001908152602001600020600083815260200190815260200160002060010154146104ed576040517f08c379a00000000000000000000000000000000000000000000000000000000081526004016104e4906111df565b60405180910390fd5b60016000803373ffffffffffffffffffffffffffffffffffffffff1673ffffffffffffffffffffffffffffffffffffffff168152602001908152602001600020600084815260200190815260200160002060040160006101000a81548160ff0219169083151502179055507f508a94a76399c5fc11f4b556f164bfeb73ce905c90ee01a7b9bb46afd38e542c33834260405161058b9392919061120e565b60405180910390a15050565b60036020528060005260406000206000915054906101000a900460ff1681565b8060008060003373ffffffffffffffffffffffffffffffffffffffff1673ffffffffffffffffffffffffffffffffffffffff1681526020019081526020016000206000838152602001908152602001600020600101541461064d576040517f08c379a0000000000000000000000000000000000000000000000000000000008152600401610644906111df565b60405180910390fd5b6000803373ffffffffffffffffffffffffffffffffffffffff1673ffffffffffffffffffffffffffffffffffffffff1681526020019081526020016000206000838152602001908152602001600020600080820160006101000a81549073ffffffffffffffffffffffffffffffffffffffff02191690556001820160009055600282016000905560038201600090556004820160006101000a81549060ff021916905550507f970e04a6a710e28811b167ae1347d4060fbcae7b29864e63b3531a0980fd1f483383426040516107259392919061120e565b60405180910390a15050565b60008160008060003373ffffffffffffffffffffffffffffffffffffffff1673ffffffffffffffffffffffffffffffffffffffff168152602001908152602001600020600083815260200190815260200160002060010154146107c9576040517f08c379a00000000000000000000000000000000000000000000000000000000081526004016107c0906111df565b60405180910390fd5b600160008773ffffffffffffffffffffffffffffffffffffffff1673ffffffffffffffffffffffffffffffffffffffff1681526020019081526020016000205484111561084b576040517f08c379a000000000000000000000000000000000000000000000000000000000815260040161084290611291565b60405180910390fd5b60008060008873ffffffffffffffffffffffffffffffffffffffff1673ffffffffffffffffffffffffffffffffffffffff168152602001908152602001600020600085815260200190815260200160002090508060040160009054906101000a900460ff166108ef576040517f08c379a00000000000000000000000000000000000000000000000000000000081526004016108e6906112fd565b60405180910390fd5b806002015481600301546109039190610e97565b421015610945576040517f08c379a000000000000000000000000000000000000000000000000000000000815260040161093c90611369565b60405180910390fd5b8573ffffffffffffffffffffffffffffffffffffffff166108fc869081150290604051600060405180830381858888f1935050505015801561098b573d6000803e3d6000fd5b507fd52bd61f7c422d441e024604f4517878fd3305d6acf0fe37baef23ed21af6bc93387876040516109bf93929190611389565b60405180910390a1806003015481600201546109db9190610e97565b8160020181905550600192505050949350505050565b60026020528060005260406000206000915090505481565b60008211610a4c576040517f08c379a0000000000000000000000000000000000000000000000000000000008152600401610a439061140c565b60405180910390fd5b60008111610a8f576040517f08c379a0000000000000000000000000000000000000000000000000000000008152600401610a8690611478565b60405180910390fd5b600360003373ffffffffffffffffffffffffffffffffffffffff1673ffffffffffffffffffffffffffffffffffffffff16815260200190815260200160002060009054906101000a900460ff16610c9f5760006040518060a001604052808573ffffffffffffffffffffffffffffffffffffffff168152602001848152602001428152602001838152602001600115158152509050806000803373ffffffffffffffffffffffffffffffffffffffff1673ffffffffffffffffffffffffffffffffffffffff168152602001908152602001600020600080815260200190815260200160002060008201518160000160006101000a81548173ffffffffffffffffffffffffffffffffffffffff021916908373ffffffffffffffffffffffffffffffffffffffff16021790555060208201518160010155604082015181600201556060820151816003015560808201518160040160006101000a81548160ff0219169083151502179055509050506001600360003373ffffffffffffffffffffffffffffffffffffffff1673ffffffffffffffffffffffffffffffffffffffff16815260200190815260200160002060006101000a81548160ff0219169083151502179055506001600260003373ffffffffffffffffffffffffffffffffffffffff1673ffffffffffffffffffffffffffffffffffffffff1681526020019081526020016000208190555050610e59565b6000600260003373ffffffffffffffffffffffffffffffffffffffff1673ffffffffffffffffffffffffffffffffffffffff16815260200190815260200160002054905060006040518060a001604052808673ffffffffffffffffffffffffffffffffffffffff168152602001858152602001428152602001848152602001600115158152509050806000803373ffffffffffffffffffffffffffffffffffffffff1673ffffffffffffffffffffffffffffffffffffffff168152602001908152602001600020600084815260200190815260200160002060008201518160000160006101000a81548173ffffffffffffffffffffffffffffffffffffffff021916908373ffffffffffffffffffffffffffffffffffffffff16021790555060208201518160010155604082015181600201556060820151816003015560808201518160040160006101000a81548160ff0219169083151502179055509050506001600260003373ffffffffffffffffffffffffffffffffffffffff1673ffffffffffffffffffffffffffffffffffffffff1681526020019081526020016000206000828254610e4f9190610e97565b9250508190555050505b505050565b6000819050919050565b7f4e487b7100000000000000000000000000000000000000000000000000000000600052601160045260246000fd5b6000610ea282610e5e565b9150610ead83610e5e565b9250827fffffffffffffffffffffffffffffffffffffffffffffffffffffffffffffffff03821115610ee257610ee1610e68565b5b828201905092915050565b600080fd5b610efb81610e5e565b8114610f0657600080fd5b50565b600081359050610f1881610ef2565b92915050565b600060208284031215610f3457610f33610eed565b5b6000610f4284828501610f09565b91505092915050565b600073ffffffffffffffffffffffffffffffffffffffff82169050919050565b6000610f7682610f4b565b9050919050565b610f8681610f6b565b8114610f9157600080fd5b50565b600081359050610fa381610f7d565b92915050565b600060208284031215610fbf57610fbe610eed565b5b6000610fcd84828501610f94565b91505092915050565b60008115159050919050565b610feb81610fd6565b82525050565b60006020820190506110066000830184610fe2565b92915050565b6000806000806080858703121561102657611025610eed565b5b600061103487828801610f94565b945050602061104587828801610f94565b935050604061105687828801610f09565b925050606061106787828801610f09565b91505092959194509250565b61107c81610e5e565b82525050565b60006020820190506110976000830184611073565b92915050565b6000806000606084860312156110b6576110b5610eed565b5b60006110c486828701610f94565b93505060206110d586828701610f09565b92505060406110e686828701610f09565b9150509250925092565b600082825260208201905092915050565b7f616d6f756e7420746f207769746864726177206973206772656174657220746860008201527f616e2066756e6473000000000000000000000000000000000000000000000000602082015250565b600061115d6028836110f0565b915061116882611101565b604082019050919050565b6000602082019050818103600083015261118c81611150565b9050919050565b7f7061796d656e7420646f6573206e6f7420657869737400000000000000000000600082015250565b60006111c96016836110f0565b91506111d482611193565b602082019050919050565b600060208201905081810360008301526111f8816111bc565b9050919050565b61120881610f6b565b82525050565b600060608201905061122360008301866111ff565b6112306020830185611073565b61123d6040830184611073565b949350505050565b7f616d6f756e7420657863656564732066756e6473000000000000000000000000600082015250565b600061127b6014836110f0565b915061128682611245565b602082019050919050565b600060208201905081810360008301526112aa8161126e565b9050919050565b7f7061796d656e7420697320646561637469766174656400000000000000000000600082015250565b60006112e76016836110f0565b91506112f2826112b1565b602082019050919050565b60006020820190508181036000830152611316816112da565b9050919050565b7f7061796d656e74206973206e6f74206475652079657400000000000000000000600082015250565b60006113536016836110f0565b915061135e8261131d565b602082019050919050565b6000602082019050818103600083015261138281611346565b9050919050565b600060608201905061139e60008301866111ff565b6113ab60208301856111ff565b6113b86040830184611073565b949350505050565b7f616d6f756e74206d7573742062652067726561746572207468616e2030000000600082015250565b60006113f6601d836110f0565b9150611401826113c0565b602082019050919050565b60006020820190508181036000830152611425816113e9565b9050919050565b7f6672657175656e6379206d7573742062652067726561746572207468616e2030600082015250565b60006114626020836110f0565b915061146d8261142c565b602082019050919050565b6000602082019050818103600083015261149181611455565b905091905056fea2646970667358221220977d794cf2ad26ad73f2e1bdb1ef299a4824954c263edd83d0e984fc3d150fa964736f6c634300080a0033",
  "immutableReferences": {},
  "source": "pragma solidity ^0.8.0;\r\n\r\n/* Recurring payments on the ethereum blockchain */\r\n\r\ncontract Payment {\r\n\r\n    struct Payment {\r\n        address to;\r\n        uint amount;\r\n        uint last_pay; // in seconds, epoch\r\n        uint frequency; //the period in seconds between payments, for ex. daily = 60 * 60 * 24\r\n        bool active; // user can suspend payment\r\n    }\r\n\r\n    // payer => (payment id => Payment struct)\r\n    // id starts from 0 and gets incremented by one each time payer creates a new payment\r\n    mapping(address => mapping(uint => Payment)) all_payments;\r\n    // maps address to the amount with which the address funded the contract\r\n    mapping(address => uint) funding;\r\n    // maps address to number of payments the address created, used as an id for payments\r\n    mapping(address => uint) public created;\r\n    // user => has created any payments\r\n    mapping(address => bool) public has_payments;\r\n\r\n    modifier paymentExists(uint id) {\r\n        require(all_payments[msg.sender][id].amount == 0, 'payment does not exist');\r\n        _;\r\n    }\r\n\r\n    event PaymentCreated(address from, address to, uint amount, uint frequency);\r\n    event PaymentCancelled(address cancler, uint id, uint when);\r\n    event PaymentSuspended(address suspender, uint id, uint when);\r\n    event PaymentResumed(address suspender, uint id, uint when);\r\n    event PaymentSent(address from, address to, uint amount);\r\n\r\n\r\n    function createPayment(address to, uint amount, uint frequency) external {\r\n        require(amount > 0, 'amount must be greater than 0');\r\n        require(frequency > 0, 'frequency must be greater than 0');\r\n\r\n        // if msg.sender's first payment\r\n        if(!has_payments[msg.sender]) {\r\n            // create a new Payment struct\r\n            Payment memory new_payment = Payment(to, amount, block.timestamp, frequency, true);\r\n\r\n            all_payments[msg.sender][0] = new_payment; // add struct to mapping\r\n            has_payments[msg.sender] = true;\r\n\r\n            created[msg.sender] = 1; // set number of payments msg.sender has created to one\r\n            \r\n        } \r\n        else {\r\n             uint payment_id = created[msg.sender];\r\n            // create a new Payment struct\r\n            Payment memory new_payment = Payment(to, amount, block.timestamp, frequency, true);\r\n\r\n             all_payments[msg.sender][payment_id] = new_payment; // add struct to mapping\r\n             created[msg.sender] += 1; // increment number of payments msg.sender has created by one\r\n        }\r\n\r\n    }\r\n\r\n    function executePayment(address from, address to , uint amount, uint id) public payable paymentExists(id) returns (bool) {\r\n        require(amount <= funding[from], 'amount exceeds funds');\r\n\r\n        // get payment struct\r\n        Payment storage payment = all_payments[from][id];\r\n\r\n        require(payment.active, 'payment is deactivated');\r\n        require(block.timestamp >= payment.frequency + payment.last_pay, 'payment is not due yet');\r\n\r\n        payable(to).transfer(amount);\r\n\r\n        emit PaymentSent(msg.sender, to, amount);\r\n\r\n        // set the time for the next payment\r\n        payment.last_pay = payment.last_pay + payment.frequency;\r\n\r\n        return true;\r\n    }\r\n\r\n    function cancelPayment(uint id) external paymentExists(id) {\r\n        delete all_payments[msg.sender][id];\r\n        emit PaymentCancelled(msg.sender, id, block.timestamp);\r\n    }\r\n\r\n    function suspendPayment(uint id) external paymentExists(id) {\r\n        all_payments[msg.sender][id].active = false;\r\n        emit PaymentSuspended(msg.sender, id, block.timestamp);\r\n    }\r\n\r\n    function resumePayment(uint id) external paymentExists(id) {\r\n        all_payments[msg.sender][id].active = true;\r\n        emit PaymentResumed(msg.sender, id, block.timestamp);\r\n    }\r\n\r\n    // user withdraw funds\r\n    function withdraw(uint amount) external payable {\r\n        require(amount <= funding[msg.sender], 'amount to withdraw is greater than funds');\r\n        payable(msg.sender).transfer(amount);\r\n    }\r\n\r\n    // user funds the contract\r\n    receive() external payable {\r\n        funding[msg.sender] += msg.value;\r\n    }\r\n\r\n}\r\n",
  "sourcePath": "C:\\Users\\97252\\recurring-payments-dapp\\recurring-payments-ethereum\\contracts\\Payment.sol",
  "compiler": {
    "name": "solc",
    "version": "0.8.10+commit.fc410830.Emscripten.clang"
  },
  "schemaVersion": "3.4.4",
  "updatedAt": "2022-01-05T07:03:41.434Z",
  "devdoc": {
    "kind": "dev",
    "methods": {},
    "version": 1
  },
  "userdoc": {
    "kind": "user",
    "methods": {},
    "version": 1
  }
}