{
  "contractName": "Payment",
  "abi": [
    {
      "anonymous": false,
      "inputs": [
        {
          "indexed": false,
          "internalType": "address",
          "name": "cancler",
          "type": "address"
        },
        {
          "indexed": false,
          "internalType": "uint256",
          "name": "id",
          "type": "uint256"
        },
        {
          "indexed": false,
          "internalType": "uint256",
          "name": "when",
          "type": "uint256"
        }
      ],
      "name": "PaymentCancelled",
      "type": "event"
    },
    {
      "anonymous": false,
      "inputs": [
        {
          "indexed": false,
          "internalType": "address",
          "name": "from",
          "type": "address"
        },
        {
          "indexed": false,
          "internalType": "address",
          "name": "to",
          "type": "address"
        },
        {
          "indexed": false,
          "internalType": "uint256",
          "name": "amount",
          "type": "uint256"
        },
        {
          "indexed": false,
          "internalType": "uint256",
          "name": "frequency",
          "type": "uint256"
        }
      ],
      "name": "PaymentCreated",
      "type": "event"
    },
    {
      "anonymous": false,
      "inputs": [
        {
          "indexed": false,
          "internalType": "address",
          "name": "suspender",
          "type": "address"
        },
        {
          "indexed": false,
          "internalType": "uint256",
          "name": "id",
          "type": "uint256"
        },
        {
          "indexed": false,
          "internalType": "uint256",
          "name": "when",
          "type": "uint256"
        }
      ],
      "name": "PaymentResumed",
      "type": "event"
    },
    {
      "anonymous": false,
      "inputs": [
        {
          "indexed": false,
          "internalType": "address",
          "name": "from",
          "type": "address"
        },
        {
          "indexed": false,
          "internalType": "address",
          "name": "to",
          "type": "address"
        },
        {
          "indexed": false,
          "internalType": "uint256",
          "name": "amount",
          "type": "uint256"
        }
      ],
      "name": "PaymentSent",
      "type": "event"
    },
    {
      "anonymous": false,
      "inputs": [
        {
          "indexed": false,
          "internalType": "address",
          "name": "suspender",
          "type": "address"
        },
        {
          "indexed": false,
          "internalType": "uint256",
          "name": "id",
          "type": "uint256"
        },
        {
          "indexed": false,
          "internalType": "uint256",
          "name": "when",
          "type": "uint256"
        }
      ],
      "name": "PaymentSuspended",
      "type": "event"
    },
    {
      "inputs": [
        {
          "internalType": "address",
          "name": "",
          "type": "address"
        },
        {
          "internalType": "uint256",
          "name": "",
          "type": "uint256"
        }
      ],
      "name": "all_payments",
      "outputs": [
        {
          "internalType": "address",
          "name": "to",
          "type": "address"
        },
        {
          "internalType": "uint256",
          "name": "amount",
          "type": "uint256"
        },
        {
          "internalType": "uint256",
          "name": "last_pay",
          "type": "uint256"
        },
        {
          "internalType": "uint256",
          "name": "frequency",
          "type": "uint256"
        },
        {
          "internalType": "bool",
          "name": "active",
          "type": "bool"
        }
      ],
      "stateMutability": "view",
      "type": "function"
    },
    {
      "inputs": [
        {
          "internalType": "address",
          "name": "",
          "type": "address"
        }
      ],
      "name": "created",
      "outputs": [
        {
          "internalType": "uint256",
          "name": "",
          "type": "uint256"
        }
      ],
      "stateMutability": "view",
      "type": "function"
    },
    {
      "inputs": [
        {
          "internalType": "address",
          "name": "",
          "type": "address"
        }
      ],
      "name": "funding",
      "outputs": [
        {
          "internalType": "uint256",
          "name": "",
          "type": "uint256"
        }
      ],
      "stateMutability": "view",
      "type": "function"
    },
    {
      "inputs": [
        {
          "internalType": "address",
          "name": "",
          "type": "address"
        }
      ],
      "name": "has_payments",
      "outputs": [
        {
          "internalType": "bool",
          "name": "",
          "type": "bool"
        }
      ],
      "stateMutability": "view",
      "type": "function"
    },
    {
      "stateMutability": "payable",
      "type": "receive"
    },
    {
      "inputs": [
        {
          "internalType": "address",
          "name": "to",
          "type": "address"
        },
        {
          "internalType": "uint256",
          "name": "amount",
          "type": "uint256"
        },
        {
          "internalType": "uint256",
          "name": "frequency",
          "type": "uint256"
        }
      ],
      "name": "createPayment",
      "outputs": [],
      "stateMutability": "nonpayable",
      "type": "function"
    },
    {
      "inputs": [
        {
          "internalType": "address",
          "name": "from",
          "type": "address"
        },
        {
          "internalType": "uint256",
          "name": "id",
          "type": "uint256"
        }
      ],
      "name": "executePayment",
      "outputs": [
        {
          "internalType": "bool",
          "name": "",
          "type": "bool"
        }
      ],
      "stateMutability": "payable",
      "type": "function"
    },
    {
      "inputs": [
        {
          "internalType": "uint256",
          "name": "id",
          "type": "uint256"
        }
      ],
      "name": "cancelPayment",
      "outputs": [],
      "stateMutability": "nonpayable",
      "type": "function"
    },
    {
      "inputs": [
        {
          "internalType": "uint256",
          "name": "id",
          "type": "uint256"
        }
      ],
      "name": "suspendPayment",
      "outputs": [],
      "stateMutability": "nonpayable",
      "type": "function"
    },
    {
      "inputs": [
        {
          "internalType": "uint256",
          "name": "id",
          "type": "uint256"
        }
      ],
      "name": "resumePayment",
      "outputs": [],
      "stateMutability": "nonpayable",
      "type": "function"
    },
    {
      "inputs": [
        {
          "internalType": "uint256",
          "name": "amount",
          "type": "uint256"
        }
      ],
      "name": "withdraw",
      "outputs": [],
      "stateMutability": "payable",
      "type": "function"
    },
    {
      "inputs": [
        {
          "internalType": "uint256",
          "name": "id",
          "type": "uint256"
        }
      ],
      "name": "isPaymentActive",
      "outputs": [
        {
          "internalType": "bool",
          "name": "",
          "type": "bool"
        }
      ],
      "stateMutability": "view",
      "type": "function"
    }
  ],
  "bytecode": "0x608060405234801561001057600080fd5b50611809806100206000396000f3fe6080604052600436106100a05760003560e01c80637b5fc7eb116100645780637b5fc7eb146101ea5780638422927d14610227578063d42efd8314610250578063d6d8dd0a1461028d578063ef0bba2c146102ce578063f585a1ee146102fe576100fd565b8063049f2d8a146101025780631402703c1461013f5780632e1a7d4d1461017c5780633d931b281461019857806368b43168146101c1576100fd565b366100fd5734600160003373ffffffffffffffffffffffffffffffffffffffff1673ffffffffffffffffffffffffffffffffffffffff16815260200190815260200160002060008282546100f49190611172565b92505081905550005b600080fd5b34801561010e57600080fd5b506101296004803603810190610124919061122b565b610327565b6040516101369190611267565b60405180910390f35b34801561014b57600080fd5b50610166600480360381019061016191906112ae565b61033f565b60405161017391906112f6565b60405180910390f35b610196600480360381019061019191906112ae565b6103a8565b005b3480156101a457600080fd5b506101bf60048036038101906101ba91906112ae565b6104ca565b005b3480156101cd57600080fd5b506101e860048036038101906101e391906112ae565b61060d565b005b3480156101f657600080fd5b50610211600480360381019061020c919061122b565b610750565b60405161021e91906112f6565b60405180910390f35b34801561023357600080fd5b5061024e600480360381019061024991906112ae565b610770565b005b34801561025c57600080fd5b506102776004803603810190610272919061122b565b6108ed565b6040516102849190611267565b60405180910390f35b34801561029957600080fd5b506102b460048036038101906102af9190611311565b610905565b6040516102c5959493929190611360565b60405180910390f35b6102e860048036038101906102e39190611311565b610975565b6040516102f591906112f6565b60405180910390f35b34801561030a57600080fd5b50610325600480360381019061032091906113b3565b610ce4565b005b60016020528060005260406000206000915090505481565b60008060003373ffffffffffffffffffffffffffffffffffffffff1673ffffffffffffffffffffffffffffffffffffffff168152602001908152602001600020600083815260200190815260200160002060040160009054906101000a900460ff169050919050565b600160003373ffffffffffffffffffffffffffffffffffffffff1673ffffffffffffffffffffffffffffffffffffffff1681526020019081526020016000205481111561042a576040517f08c379a000000000000000000000000000000000000000000000000000000000815260040161042190611489565b60405180910390fd5b80600160003373ffffffffffffffffffffffffffffffffffffffff1673ffffffffffffffffffffffffffffffffffffffff168152602001908152602001600020600082825461047991906114a9565b925050819055503373ffffffffffffffffffffffffffffffffffffffff166108fc829081150290604051600060405180830381858888f193505050501580156104c6573d6000803e3d6000fd5b5050565b338160008060008473ffffffffffffffffffffffffffffffffffffffff1673ffffffffffffffffffffffffffffffffffffffff1681526020019081526020016000206000838152602001908152602001600020600101541415610562576040517f08c379a000000000000000000000000000000000000000000000000000000000815260040161055990611529565b60405180910390fd5b60008060003373ffffffffffffffffffffffffffffffffffffffff1673ffffffffffffffffffffffffffffffffffffffff168152602001908152602001600020600085815260200190815260200160002060040160006101000a81548160ff0219169083151502179055507f256f6c7136a700320426eeb79b9eacd98397b1736d6e5092966a77c5a9a6d28b33844260405161060093929190611549565b60405180910390a1505050565b338160008060008473ffffffffffffffffffffffffffffffffffffffff1673ffffffffffffffffffffffffffffffffffffffff16815260200190815260200160002060008381526020019081526020016000206001015414156106a5576040517f08c379a000000000000000000000000000000000000000000000000000000000815260040161069c90611529565b60405180910390fd5b60016000803373ffffffffffffffffffffffffffffffffffffffff1673ffffffffffffffffffffffffffffffffffffffff168152602001908152602001600020600085815260200190815260200160002060040160006101000a81548160ff0219169083151502179055507f508a94a76399c5fc11f4b556f164bfeb73ce905c90ee01a7b9bb46afd38e542c33844260405161074393929190611549565b60405180910390a1505050565b60036020528060005260406000206000915054906101000a900460ff1681565b338160008060008473ffffffffffffffffffffffffffffffffffffffff1673ffffffffffffffffffffffffffffffffffffffff1681526020019081526020016000206000838152602001908152602001600020600101541415610808576040517f08c379a00000000000000000000000000000000000000000000000000000000081526004016107ff90611529565b60405180910390fd5b6000803373ffffffffffffffffffffffffffffffffffffffff1673ffffffffffffffffffffffffffffffffffffffff1681526020019081526020016000206000848152602001908152602001600020600080820160006101000a81549073ffffffffffffffffffffffffffffffffffffffff02191690556001820160009055600282016000905560038201600090556004820160006101000a81549060ff021916905550507f970e04a6a710e28811b167ae1347d4060fbcae7b29864e63b3531a0980fd1f483384426040516108e093929190611549565b60405180910390a1505050565b60026020528060005260406000206000915090505481565b6000602052816000526040600020602052806000526040600020600091509150508060000160009054906101000a900473ffffffffffffffffffffffffffffffffffffffff16908060010154908060020154908060030154908060040160009054906101000a900460ff16905085565b6000828260008060008473ffffffffffffffffffffffffffffffffffffffff1673ffffffffffffffffffffffffffffffffffffffff1681526020019081526020016000206000838152602001908152602001600020600101541415610a0f576040517f08c379a0000000000000000000000000000000000000000000000000000000008152600401610a0690611529565b60405180910390fd5b60008060008773ffffffffffffffffffffffffffffffffffffffff1673ffffffffffffffffffffffffffffffffffffffff16815260200190815260200160002060008681526020019081526020016000209050600160008773ffffffffffffffffffffffffffffffffffffffff1673ffffffffffffffffffffffffffffffffffffffff1681526020019081526020016000205481600101541115610ae8576040517f08c379a0000000000000000000000000000000000000000000000000000000008152600401610adf906115cc565b60405180910390fd5b8060040160009054906101000a900460ff16610b39576040517f08c379a0000000000000000000000000000000000000000000000000000000008152600401610b3090611638565b60405180910390fd5b80600201548160030154610b4d9190611172565b421015610b8f576040517f08c379a0000000000000000000000000000000000000000000000000000000008152600401610b86906116a4565b60405180910390fd5b8060010154600160008873ffffffffffffffffffffffffffffffffffffffff1673ffffffffffffffffffffffffffffffffffffffff1681526020019081526020016000206000828254610be291906114a9565b925050819055508060000160009054906101000a900473ffffffffffffffffffffffffffffffffffffffff1673ffffffffffffffffffffffffffffffffffffffff166108fc82600101549081150290604051600060405180830381858888f19350505050158015610c57573d6000803e3d6000fd5b507fd52bd61f7c422d441e024604f4517878fd3305d6acf0fe37baef23ed21af6bc9868260000160009054906101000a900473ffffffffffffffffffffffffffffffffffffffff168360010154604051610cb3939291906116c4565b60405180910390a180600301548160020154610ccf9190611172565b81600201819055506001935050505092915050565b60008211610d27576040517f08c379a0000000000000000000000000000000000000000000000000000000008152600401610d1e90611747565b60405180910390fd5b60008111610d6a576040517f08c379a0000000000000000000000000000000000000000000000000000000008152600401610d61906117b3565b60405180910390fd5b600360003373ffffffffffffffffffffffffffffffffffffffff1673ffffffffffffffffffffffffffffffffffffffff16815260200190815260200160002060009054906101000a900460ff16610f7a5760006040518060a001604052808573ffffffffffffffffffffffffffffffffffffffff168152602001848152602001428152602001838152602001600115158152509050806000803373ffffffffffffffffffffffffffffffffffffffff1673ffffffffffffffffffffffffffffffffffffffff168152602001908152602001600020600080815260200190815260200160002060008201518160000160006101000a81548173ffffffffffffffffffffffffffffffffffffffff021916908373ffffffffffffffffffffffffffffffffffffffff16021790555060208201518160010155604082015181600201556060820151816003015560808201518160040160006101000a81548160ff0219169083151502179055509050506001600360003373ffffffffffffffffffffffffffffffffffffffff1673ffffffffffffffffffffffffffffffffffffffff16815260200190815260200160002060006101000a81548160ff0219169083151502179055506001600260003373ffffffffffffffffffffffffffffffffffffffff1673ffffffffffffffffffffffffffffffffffffffff1681526020019081526020016000208190555050611134565b6000600260003373ffffffffffffffffffffffffffffffffffffffff1673ffffffffffffffffffffffffffffffffffffffff16815260200190815260200160002054905060006040518060a001604052808673ffffffffffffffffffffffffffffffffffffffff168152602001858152602001428152602001848152602001600115158152509050806000803373ffffffffffffffffffffffffffffffffffffffff1673ffffffffffffffffffffffffffffffffffffffff168152602001908152602001600020600084815260200190815260200160002060008201518160000160006101000a81548173ffffffffffffffffffffffffffffffffffffffff021916908373ffffffffffffffffffffffffffffffffffffffff16021790555060208201518160010155604082015181600201556060820151816003015560808201518160040160006101000a81548160ff0219169083151502179055509050506001600260003373ffffffffffffffffffffffffffffffffffffffff1673ffffffffffffffffffffffffffffffffffffffff168152602001908152602001600020600082825461112a9190611172565b9250508190555050505b505050565b6000819050919050565b7f4e487b7100000000000000000000000000000000000000000000000000000000600052601160045260246000fd5b600061117d82611139565b915061118883611139565b9250827fffffffffffffffffffffffffffffffffffffffffffffffffffffffffffffffff038211156111bd576111bc611143565b5b828201905092915050565b600080fd5b600073ffffffffffffffffffffffffffffffffffffffff82169050919050565b60006111f8826111cd565b9050919050565b611208816111ed565b811461121357600080fd5b50565b600081359050611225816111ff565b92915050565b600060208284031215611241576112406111c8565b5b600061124f84828501611216565b91505092915050565b61126181611139565b82525050565b600060208201905061127c6000830184611258565b92915050565b61128b81611139565b811461129657600080fd5b50565b6000813590506112a881611282565b92915050565b6000602082840312156112c4576112c36111c8565b5b60006112d284828501611299565b91505092915050565b60008115159050919050565b6112f0816112db565b82525050565b600060208201905061130b60008301846112e7565b92915050565b60008060408385031215611328576113276111c8565b5b600061133685828601611216565b925050602061134785828601611299565b9150509250929050565b61135a816111ed565b82525050565b600060a0820190506113756000830188611351565b6113826020830187611258565b61138f6040830186611258565b61139c6060830185611258565b6113a960808301846112e7565b9695505050505050565b6000806000606084860312156113cc576113cb6111c8565b5b60006113da86828701611216565b93505060206113eb86828701611299565b92505060406113fc86828701611299565b9150509250925092565b600082825260208201905092915050565b7f616d6f756e7420746f207769746864726177206973206772656174657220746860008201527f616e2066756e6473000000000000000000000000000000000000000000000000602082015250565b6000611473602883611406565b915061147e82611417565b604082019050919050565b600060208201905081810360008301526114a281611466565b9050919050565b60006114b482611139565b91506114bf83611139565b9250828210156114d2576114d1611143565b5b828203905092915050565b7f7061796d656e7420646f6573206e6f7420657869737400000000000000000000600082015250565b6000611513601683611406565b915061151e826114dd565b602082019050919050565b6000602082019050818103600083015261154281611506565b9050919050565b600060608201905061155e6000830186611351565b61156b6020830185611258565b6115786040830184611258565b949350505050565b7f616d6f756e7420657863656564732066756e6473000000000000000000000000600082015250565b60006115b6601483611406565b91506115c182611580565b602082019050919050565b600060208201905081810360008301526115e5816115a9565b9050919050565b7f7061796d656e7420697320646561637469766174656400000000000000000000600082015250565b6000611622601683611406565b915061162d826115ec565b602082019050919050565b6000602082019050818103600083015261165181611615565b9050919050565b7f7061796d656e74206973206e6f74206475652079657400000000000000000000600082015250565b600061168e601683611406565b915061169982611658565b602082019050919050565b600060208201905081810360008301526116bd81611681565b9050919050565b60006060820190506116d96000830186611351565b6116e66020830185611351565b6116f36040830184611258565b949350505050565b7f616d6f756e74206d7573742062652067726561746572207468616e2030000000600082015250565b6000611731601d83611406565b915061173c826116fb565b602082019050919050565b6000602082019050818103600083015261176081611724565b9050919050565b7f6672657175656e6379206d7573742062652067726561746572207468616e2030600082015250565b600061179d602083611406565b91506117a882611767565b602082019050919050565b600060208201905081810360008301526117cc81611790565b905091905056fea2646970667358221220aa230b900e0b9b000850c70114f047b7025c0b61b6b5cb2156c510d651df4c1f64736f6c634300080a0033",
  "immutableReferences": {},
  "source": "pragma solidity ^0.8.0;\r\npragma experimental ABIEncoderV2;\r\n\r\n/* Recurring payments on the ethereum blockchain */\r\n\r\ncontract Payment {\r\n\r\n    struct Payment {\r\n        address to;\r\n        uint amount;\r\n        uint last_pay; // in seconds, epoch\r\n        uint frequency; //the period in seconds between payments, for ex. daily = 60 * 60 * 24\r\n        bool active; // user can suspend payment\r\n    }\r\n\r\n    // payer => (payment id => Payment struct)\r\n    // id starts from 0 and gets incremented by one each time payer creates a new payment\r\n    mapping(address => mapping(uint => Payment)) public all_payments;\r\n    // maps address to the amount with which the address funded the contract\r\n    mapping(address => uint) public funding;\r\n    // maps address to number of payments the address created, used as an id for payments\r\n    mapping(address => uint) public created;\r\n    // user => has created any payments\r\n    mapping(address => bool) public has_payments;\r\n\r\n    modifier paymentExists(address from, uint id) {\r\n        require(all_payments[from][id].amount != 0, 'payment does not exist');\r\n        _;\r\n    }\r\n\r\n    event PaymentCreated(address from, address to, uint amount, uint frequency);\r\n    event PaymentCancelled(address cancler, uint id, uint when);\r\n    event PaymentSuspended(address suspender, uint id, uint when);\r\n    event PaymentResumed(address suspender, uint id, uint when);\r\n    event PaymentSent(address from, address to, uint amount);\r\n\r\n\r\n    function createPayment(address to, uint amount, uint frequency) external {\r\n        require(amount > 0, 'amount must be greater than 0');\r\n        require(frequency > 0, 'frequency must be greater than 0');\r\n\r\n        // if msg.sender's first payment\r\n        if(!has_payments[msg.sender]) {\r\n            // create a new Payment struct\r\n            Payment memory new_payment = Payment(to, amount, block.timestamp, frequency, true);\r\n\r\n            all_payments[msg.sender][0] = new_payment; // add struct to mapping\r\n            has_payments[msg.sender] = true;\r\n\r\n            created[msg.sender] = 1; // set number of payments msg.sender has created to one\r\n            \r\n        } \r\n        else {\r\n             uint payment_id = created[msg.sender];\r\n            // create a new Payment struct\r\n            Payment memory new_payment = Payment(to, amount, block.timestamp, frequency, true);\r\n\r\n             all_payments[msg.sender][payment_id] = new_payment; // add struct to mapping\r\n             created[msg.sender] += 1; // increment number of payments msg.sender has created by one\r\n        }\r\n\r\n    }\r\n\r\n    function executePayment(address from, uint id) public payable paymentExists(from, id) returns (bool) {\r\n        // get payment struct\r\n        Payment storage payment = all_payments[from][id];\r\n        require(payment.amount <= funding[from], 'amount exceeds funds');\r\n        require(payment.active, 'payment is deactivated');\r\n        require(block.timestamp >= payment.frequency + payment.last_pay, 'payment is not due yet');\r\n\r\n        funding[from] -= payment.amount;\r\n        payable(payment.to).transfer(payment.amount);\r\n        emit PaymentSent(from, payment.to, payment.amount);\r\n\r\n        // set the time for the next payment\r\n        payment.last_pay = payment.last_pay + payment.frequency;\r\n\r\n        return true;\r\n    }\r\n\r\n    function cancelPayment(uint id) external paymentExists(msg.sender, id) {\r\n        delete all_payments[msg.sender][id];\r\n        emit PaymentCancelled(msg.sender, id, block.timestamp);\r\n    }\r\n\r\n    function suspendPayment(uint id) external paymentExists(msg.sender, id) {\r\n        all_payments[msg.sender][id].active = false;\r\n        emit PaymentSuspended(msg.sender, id, block.timestamp);\r\n    }\r\n\r\n    function resumePayment(uint id) external paymentExists(msg.sender, id) {\r\n        all_payments[msg.sender][id].active = true;\r\n        emit PaymentResumed(msg.sender, id, block.timestamp);\r\n    }\r\n\r\n    // user withdraw funds\r\n    function withdraw(uint amount) external payable {\r\n        require(amount <= funding[msg.sender], 'amount to withdraw is greater than funds');\r\n        funding[msg.sender] -= amount;\r\n        payable(msg.sender).transfer(amount);\r\n    }\r\n\r\n    // user funds the contract\r\n    receive() external payable {\r\n        funding[msg.sender] += msg.value;\r\n    }\r\n\r\n    function isPaymentActive(uint id) external view returns (bool) {\r\n        return all_payments[msg.sender][id].active;\r\n    }\r\n}\r\n",
  "sourcePath": "C:\\Users\\97252\\recurring-payments-dapp\\recurring-payments-ethereum\\contracts\\Payment.sol",
  "compiler": {
    "name": "solc",
    "version": "0.8.10+commit.fc410830.Emscripten.clang"
  },
  "schemaVersion": "3.4.4",
  "updatedAt": "2022-01-05T21:03:04.184Z",
  "devdoc": {
    "kind": "dev",
    "methods": {},
    "version": 1
  },
  "userdoc": {
    "kind": "user",
    "methods": {},
    "version": 1
  }
}